{
  "abi": [
    {
      "inputs": [
        {
          "internalType": "address",
          "name": "owner",
          "type": "address"
        }
      ],
      "stateMutability": "nonpayable",
      "type": "constructor"
    },
    {
      "inputs": [
        {
          "internalType": "address",
          "name": "sender",
          "type": "address"
        },
        {
          "internalType": "uint256",
          "name": "tokenId",
          "type": "uint256"
        },
        {
          "internalType": "address",
          "name": "owner",
          "type": "address"
        }
      ],
      "name": "ERC721IncorrectOwner",
      "type": "error"
    },
    {
      "inputs": [
        {
          "internalType": "address",
          "name": "operator",
          "type": "address"
        },
        {
          "internalType": "uint256",
          "name": "tokenId",
          "type": "uint256"
        }
      ],
      "name": "ERC721InsufficientApproval",
      "type": "error"
    },
    {
      "inputs": [
        {
          "internalType": "address",
          "name": "approver",
          "type": "address"
        }
      ],
      "name": "ERC721InvalidApprover",
      "type": "error"
    },
    {
      "inputs": [
        {
          "internalType": "address",
          "name": "operator",
          "type": "address"
        }
      ],
      "name": "ERC721InvalidOperator",
      "type": "error"
    },
    {
      "inputs": [
        {
          "internalType": "address",
          "name": "owner",
          "type": "address"
        }
      ],
      "name": "ERC721InvalidOwner",
      "type": "error"
    },
    {
      "inputs": [
        {
          "internalType": "address",
          "name": "receiver",
          "type": "address"
        }
      ],
      "name": "ERC721InvalidReceiver",
      "type": "error"
    },
    {
      "inputs": [
        {
          "internalType": "address",
          "name": "sender",
          "type": "address"
        }
      ],
      "name": "ERC721InvalidSender",
      "type": "error"
    },
    {
      "inputs": [
        {
          "internalType": "uint256",
          "name": "tokenId",
          "type": "uint256"
        }
      ],
      "name": "ERC721NonexistentToken",
      "type": "error"
    },
    {
      "inputs": [
        {
          "internalType": "address",
          "name": "owner",
          "type": "address"
        }
      ],
      "name": "OwnableInvalidOwner",
      "type": "error"
    },
    {
      "inputs": [
        {
          "internalType": "address",
          "name": "account",
          "type": "address"
        }
      ],
      "name": "OwnableUnauthorizedAccount",
      "type": "error"
    },
    {
      "anonymous": false,
      "inputs": [
        {
          "indexed": true,
          "internalType": "address",
          "name": "owner",
          "type": "address"
        },
        {
          "indexed": true,
          "internalType": "address",
          "name": "approved",
          "type": "address"
        },
        {
          "indexed": true,
          "internalType": "uint256",
          "name": "tokenId",
          "type": "uint256"
        }
      ],
      "name": "Approval",
      "type": "event"
    },
    {
      "anonymous": false,
      "inputs": [
        {
          "indexed": true,
          "internalType": "address",
          "name": "owner",
          "type": "address"
        },
        {
          "indexed": true,
          "internalType": "address",
          "name": "operator",
          "type": "address"
        },
        {
          "indexed": false,
          "internalType": "bool",
          "name": "approved",
          "type": "bool"
        }
      ],
      "name": "ApprovalForAll",
      "type": "event"
    },
    {
      "anonymous": false,
      "inputs": [
        {
          "indexed": true,
          "internalType": "address",
          "name": "previousOwner",
          "type": "address"
        },
        {
          "indexed": true,
          "internalType": "address",
          "name": "newOwner",
          "type": "address"
        }
      ],
      "name": "OwnershipTransferStarted",
      "type": "event"
    },
    {
      "anonymous": false,
      "inputs": [
        {
          "indexed": true,
          "internalType": "address",
          "name": "previousOwner",
          "type": "address"
        },
        {
          "indexed": true,
          "internalType": "address",
          "name": "newOwner",
          "type": "address"
        }
      ],
      "name": "OwnershipTransferred",
      "type": "event"
    },
    {
      "anonymous": false,
      "inputs": [
        {
          "indexed": true,
          "internalType": "address",
          "name": "from",
          "type": "address"
        },
        {
          "indexed": true,
          "internalType": "address",
          "name": "to",
          "type": "address"
        },
        {
          "indexed": true,
          "internalType": "uint256",
          "name": "tokenId",
          "type": "uint256"
        }
      ],
      "name": "Transfer",
      "type": "event"
    },
    {
      "inputs": [],
      "name": "Auction",
      "outputs": [
        {
          "internalType": "address",
          "name": "",
          "type": "address"
        }
      ],
      "stateMutability": "view",
      "type": "function"
    },
    {
      "inputs": [],
      "name": "LastTokenId",
      "outputs": [
        {
          "internalType": "uint128",
          "name": "",
          "type": "uint128"
        }
      ],
      "stateMutability": "view",
      "type": "function"
    },
    {
      "inputs": [
        {
          "internalType": "address",
          "name": "user",
          "type": "address"
        }
      ],
      "name": "Mint",
      "outputs": [],
      "stateMutability": "nonpayable",
      "type": "function"
    },
    {
      "inputs": [
        {
          "internalType": "uint256",
          "name": "tokenId",
          "type": "uint256"
        },
        {
          "internalType": "string",
          "name": "uri",
          "type": "string"
        }
      ],
      "name": "OverriedTokenUri",
      "outputs": [],
      "stateMutability": "nonpayable",
      "type": "function"
    },
    {
      "inputs": [
        {
          "internalType": "address",
          "name": "auction",
          "type": "address"
        }
      ],
      "name": "SetAuction",
      "outputs": [],
      "stateMutability": "nonpayable",
      "type": "function"
    },
    {
      "inputs": [
        {
          "internalType": "string",
          "name": "uri",
          "type": "string"
        }
      ],
      "name": "SetBaseUri",
      "outputs": [],
      "stateMutability": "nonpayable",
      "type": "function"
    },
    {
      "inputs": [
        {
          "internalType": "string",
          "name": "newValue",
          "type": "string"
        }
      ],
      "name": "SetName",
      "outputs": [],
      "stateMutability": "nonpayable",
      "type": "function"
    },
    {
      "inputs": [
        {
          "internalType": "string",
          "name": "newValue",
          "type": "string"
        }
      ],
      "name": "SetSymbol",
      "outputs": [],
      "stateMutability": "nonpayable",
      "type": "function"
    },
    {
      "inputs": [
        {
          "internalType": "bool",
          "name": "transferDisabled",
          "type": "bool"
        }
      ],
      "name": "SetTransferMode",
      "outputs": [],
      "stateMutability": "nonpayable",
      "type": "function"
    },
    {
      "inputs": [
        {
          "internalType": "uint256",
          "name": "",
          "type": "uint256"
        }
      ],
      "name": "TokenUriOverride",
      "outputs": [
        {
          "internalType": "string",
          "name": "",
          "type": "string"
        }
      ],
      "stateMutability": "view",
      "type": "function"
    },
    {
      "inputs": [],
      "name": "TransferDisabled",
      "outputs": [
        {
          "internalType": "bool",
          "name": "",
          "type": "bool"
        }
      ],
      "stateMutability": "view",
      "type": "function"
    },
    {
      "inputs": [],
      "name": "acceptOwnership",
      "outputs": [],
      "stateMutability": "nonpayable",
      "type": "function"
    },
    {
      "inputs": [
        {
          "internalType": "address",
          "name": "to",
          "type": "address"
        },
        {
          "internalType": "uint256",
          "name": "tokenId",
          "type": "uint256"
        }
      ],
      "name": "approve",
      "outputs": [],
      "stateMutability": "nonpayable",
      "type": "function"
    },
    {
      "inputs": [
        {
          "internalType": "address",
          "name": "owner",
          "type": "address"
        }
      ],
      "name": "balanceOf",
      "outputs": [
        {
          "internalType": "uint256",
          "name": "",
          "type": "uint256"
        }
      ],
      "stateMutability": "view",
      "type": "function"
    },
    {
      "inputs": [
        {
          "internalType": "uint256",
          "name": "tokenId",
          "type": "uint256"
        }
      ],
      "name": "getApproved",
      "outputs": [
        {
          "internalType": "address",
          "name": "",
          "type": "address"
        }
      ],
      "stateMutability": "view",
      "type": "function"
    },
    {
      "inputs": [
        {
          "internalType": "address",
          "name": "owner",
          "type": "address"
        },
        {
          "internalType": "address",
          "name": "operator",
          "type": "address"
        }
      ],
      "name": "isApprovedForAll",
      "outputs": [
        {
          "internalType": "bool",
          "name": "",
          "type": "bool"
        }
      ],
      "stateMutability": "view",
      "type": "function"
    },
    {
      "inputs": [],
      "name": "name",
      "outputs": [
        {
          "internalType": "string",
          "name": "",
          "type": "string"
        }
      ],
      "stateMutability": "view",
      "type": "function"
    },
    {
      "inputs": [],
      "name": "owner",
      "outputs": [
        {
          "internalType": "address",
          "name": "",
          "type": "address"
        }
      ],
      "stateMutability": "view",
      "type": "function"
    },
    {
      "inputs": [
        {
          "internalType": "uint256",
          "name": "tokenId",
          "type": "uint256"
        }
      ],
      "name": "ownerOf",
      "outputs": [
        {
          "internalType": "address",
          "name": "",
          "type": "address"
        }
      ],
      "stateMutability": "view",
      "type": "function"
    },
    {
      "inputs": [],
      "name": "pendingOwner",
      "outputs": [
        {
          "internalType": "address",
          "name": "",
          "type": "address"
        }
      ],
      "stateMutability": "view",
      "type": "function"
    },
    {
      "inputs": [],
      "name": "renounceOwnership",
      "outputs": [],
      "stateMutability": "nonpayable",
      "type": "function"
    },
    {
      "inputs": [
        {
          "internalType": "address",
          "name": "from",
          "type": "address"
        },
        {
          "internalType": "address",
          "name": "to",
          "type": "address"
        },
        {
          "internalType": "uint256",
          "name": "tokenId",
          "type": "uint256"
        }
      ],
      "name": "safeTransferFrom",
      "outputs": [],
      "stateMutability": "nonpayable",
      "type": "function"
    },
    {
      "inputs": [
        {
          "internalType": "address",
          "name": "from",
          "type": "address"
        },
        {
          "internalType": "address",
          "name": "to",
          "type": "address"
        },
        {
          "internalType": "uint256",
          "name": "tokenId",
          "type": "uint256"
        },
        {
          "internalType": "bytes",
          "name": "data",
          "type": "bytes"
        }
      ],
      "name": "safeTransferFrom",
      "outputs": [],
      "stateMutability": "nonpayable",
      "type": "function"
    },
    {
      "inputs": [
        {
          "internalType": "address",
          "name": "operator",
          "type": "address"
        },
        {
          "internalType": "bool",
          "name": "approved",
          "type": "bool"
        }
      ],
      "name": "setApprovalForAll",
      "outputs": [],
      "stateMutability": "nonpayable",
      "type": "function"
    },
    {
      "inputs": [
        {
          "internalType": "bytes4",
          "name": "interfaceId",
          "type": "bytes4"
        }
      ],
      "name": "supportsInterface",
      "outputs": [
        {
          "internalType": "bool",
          "name": "",
          "type": "bool"
        }
      ],
      "stateMutability": "view",
      "type": "function"
    },
    {
      "inputs": [],
      "name": "symbol",
      "outputs": [
        {
          "internalType": "string",
          "name": "",
          "type": "string"
        }
      ],
      "stateMutability": "view",
      "type": "function"
    },
    {
      "inputs": [
        {
          "internalType": "uint256",
          "name": "tokenId",
          "type": "uint256"
        }
      ],
      "name": "tokenURI",
      "outputs": [
        {
          "internalType": "string",
          "name": "",
          "type": "string"
        }
      ],
      "stateMutability": "view",
      "type": "function"
    },
    {
      "inputs": [
        {
          "internalType": "address",
          "name": "from",
          "type": "address"
        },
        {
          "internalType": "address",
          "name": "to",
          "type": "address"
        },
        {
          "internalType": "uint256",
          "name": "tokenId",
          "type": "uint256"
        }
      ],
      "name": "transferFrom",
      "outputs": [],
      "stateMutability": "nonpayable",
      "type": "function"
    },
    {
      "inputs": [
        {
          "internalType": "address",
          "name": "newOwner",
          "type": "address"
        }
      ],
      "name": "transferOwnership",
      "outputs": [],
      "stateMutability": "nonpayable",
      "type": "function"
    }
  ],
  "bytecode": {
    "object": "0x60806040526009805460ff60801b1916600160801b17905534801562000023575f80fd5b5060405162001b3238038062001b328339810160408190526200004691620001d2565b8060405180604001604052806009815260200168094deca409acae4c6d60bb1b81525060405180604001604052806004815260200163244a4f4560e01b815250815f90816200009691906200029f565b506001620000a582826200029f565b5050506001600160a01b038116620000d657604051631e4fbdf760e01b81525f600482015260240160405180910390fd5b620000e18162000163565b50600880546001600160a01b0319169055600980546001600160801b03191681556040805180820190915290815268094deca409acae4c6d60bb1b6020820152600a906200013090826200029f565b50604080518082019091526004815263244a4f4560e01b6020820152600b906200015b90826200029f565b50506200036b565b600780546001600160a01b03191690556200017e8162000181565b50565b600680546001600160a01b038381166001600160a01b0319831681179093556040519116919082907f8be0079c531659141344cd1fd0a4f28419497f9722a3daafe3b4186f6b6457e0905f90a35050565b5f60208284031215620001e3575f80fd5b81516001600160a01b0381168114620001fa575f80fd5b9392505050565b634e487b7160e01b5f52604160045260245ffd5b600181811c908216806200022a57607f821691505b6020821081036200024957634e487b7160e01b5f52602260045260245ffd5b50919050565b601f8211156200029a57805f5260205f20601f840160051c81016020851015620002765750805b601f840160051c820191505b8181101562000297575f815560010162000282565b50505b505050565b81516001600160401b03811115620002bb57620002bb62000201565b620002d381620002cc845462000215565b846200024f565b602080601f83116001811462000309575f8415620002f15750858301515b5f19600386901b1c1916600185901b17855562000363565b5f85815260208120601f198616915b82811015620003395788860151825594840194600190910190840162000318565b50858210156200035757878501515f19600388901b60f8161c191681555b505060018460011b0185555b505050505050565b6117b980620003795f395ff3fe608060405234801561000f575f80fd5b50600436106101c6575f3560e01c80636352211e116100fe578063a24e573d1161009e578063c87b56dd1161006e578063c87b56dd146103da578063e30c3978146103ed578063e985e9c5146103fe578063f2fde38b14610411575f80fd5b8063a24e573d1461038d578063adf3ae8b146103a1578063afa35f42146103b4578063b88d4fde146103c7575f80fd5b806379ba5097116100d957806379ba5097146103595780638da5cb5b1461036157806395d89b4114610372578063a22cb4651461037a575f80fd5b80636352211e1461031d57806370a0823114610330578063715018a614610351575f80fd5b806323b872dd1161016957806348b9fed71161014457806348b9fed7146102d15780634df9dcd3146102e45780635ed1b25d146102f75780635fb3e1191461030a575f80fd5b806323b872dd146102985780633c3284d1146102ab57806342842e0e146102be575f80fd5b8063095ea7b3116101a4578063095ea7b314610232578063158b8e541461024757806316628e0b1461027257806322472f5414610285575f80fd5b806301ffc9a7146101ca57806306fdde03146101f2578063081812fc14610207575b5f80fd5b6101dd6101d836600461123b565b610424565b60405190151581526020015b60405180910390f35b6101fa610475565b6040516101e991906112a3565b61021a6102153660046112b5565b610505565b6040516001600160a01b0390911681526020016101e9565b6102456102403660046112e7565b61052c565b005b60095461025a906001600160801b031681565b6040516001600160801b0390911681526020016101e9565b61024561028036600461130f565b61053b565b61024561029336600461136d565b610565565b6102456102a63660046113b5565b61058b565b6102456102b936600461130f565b610613565b6102456102cc3660046113b5565b6106b2565b6101fa6102df3660046112b5565b6106d1565b6102456102f23660046113ee565b610768565b61024561030536600461143c565b61077d565b60085461021a906001600160a01b031681565b61021a61032b3660046112b5565b6107a3565b61034361033e36600461130f565b6107ad565b6040519081526020016101e9565b6102456107f2565b610245610805565b6006546001600160a01b031661021a565b6101fa610846565b610245610388366004611455565b610855565b6009546101dd90600160801b900460ff1681565b6102456103af3660046113ee565b610860565b6102456103c23660046113ee565b610875565b6102456103d536600461149a565b61088a565b6101fa6103e83660046112b5565b6108a1565b6007546001600160a01b031661021a565b6101dd61040c36600461156f565b610962565b61024561041f36600461130f565b61098f565b5f6001600160e01b031982166380ac58cd60e01b148061045457506001600160e01b03198216635b5e139f60e01b145b8061046f57506301ffc9a760e01b6001600160e01b03198316145b92915050565b6060600a805461048490611597565b80601f01602080910402602001604051908101604052809291908181526020018280546104b090611597565b80156104fb5780601f106104d2576101008083540402835291602001916104fb565b820191905f5260205f20905b8154815290600101906020018083116104de57829003601f168201915b5050505050905090565b5f61050f82610a00565b505f828152600460205260409020546001600160a01b031661046f565b610537828233610a38565b5050565b610543610a45565b600880546001600160a01b0319166001600160a01b0392909216919091179055565b61056d610a45565b5f838152600d60205260409020610585828483611613565b50505050565b6001600160a01b0382166105b957604051633250574960e11b81525f60048201526024015b60405180910390fd5b5f6105c5838333610a72565b9050836001600160a01b0316816001600160a01b031614610585576040516364283d7b60e01b81526001600160a01b03808616600483015260248201849052821660448201526064016105b0565b6008546001600160a01b031633146106605760405162461bcd60e51b815260206004820152601060248201526f556e617574686f72697a65642028412960801b60448201526064016105b0565b600980546106af9183915f9061067e906001600160801b03166116cd565b91906101000a8154816001600160801b0302191690836001600160801b0316021790556001600160801b0316610ab5565b50565b6106cc83838360405180602001604052805f81525061088a565b505050565b600d6020525f9081526040902080546106e990611597565b80601f016020809104026020016040519081016040528092919081815260200182805461071590611597565b80156107605780601f1061073757610100808354040283529160200191610760565b820191905f5260205f20905b81548152906001019060200180831161074357829003601f168201915b505050505081565b610770610a45565b600a6106cc828483611613565b610785610a45565b60098054911515600160801b0260ff60801b19909216919091179055565b5f61046f82610a00565b5f6001600160a01b0382166107d7576040516322718ad960e21b81525f60048201526024016105b0565b506001600160a01b03165f9081526003602052604090205490565b6107fa610a45565b6108035f610b16565b565b60075433906001600160a01b0316811461083d5760405163118cdaa760e01b81526001600160a01b03821660048201526024016105b0565b6106af81610b16565b6060600b805461048490611597565b610537338383610b2f565b610868610a45565b600b6106cc828483611613565b61087d610a45565b600c6106cc828483611613565b61089584848461058b565b61058584848484610bcd565b60606108ac82610a00565b505f828152600d6020526040812080546108c590611597565b80601f01602080910402602001604051908101604052809291908181526020018280546108f190611597565b801561093c5780601f106109135761010080835404028352916020019161093c565b820191905f5260205f20905b81548152906001019060200180831161091f57829003601f168201915b505050505090505f815111156109525792915050565b61095b83610cf3565b9392505050565b6001600160a01b039182165f90815260056020908152604080832093909416825291909152205460ff1690565b610997610a45565b600780546001600160a01b0383166001600160a01b031990911681179091556109c86006546001600160a01b031690565b6001600160a01b03167f38d16b8cac22d99fc7c124b9cd0de2d3fa1faef420bfe791d8c362d765e2270060405160405180910390a350565b5f818152600260205260408120546001600160a01b03168061046f57604051637e27328960e01b8152600481018490526024016105b0565b6106cc8383836001610d57565b6006546001600160a01b031633146108035760405163118cdaa760e01b81523360048201526024016105b0565b6009545f90600160801b900460ff168015610a9557506001600160a01b03841615155b15610aa257610aa2610e5b565b610aad848484610ea8565b949350505050565b6001600160a01b038216610ade57604051633250574960e11b81525f60048201526024016105b0565b5f610aea83835f610a72565b90506001600160a01b038116156106cc576040516339e3563760e11b81525f60048201526024016105b0565b600780546001600160a01b03191690556106af81610f9a565b6001600160a01b038216610b6157604051630b61174360e31b81526001600160a01b03831660048201526024016105b0565b6001600160a01b038381165f81815260056020908152604080832094871680845294825291829020805460ff191686151590811790915591519182527f17307eab39ab6107e8899845ad3d59bd9653f200f220920489ca2b5937696c31910160405180910390a3505050565b6001600160a01b0383163b1561058557604051630a85bd0160e11b81526001600160a01b0384169063150b7a0290610c0f9033908890879087906004016116fe565b6020604051808303815f875af1925050508015610c49575060408051601f3d908101601f19168201909252610c469181019061173a565b60015b610cb0573d808015610c76576040519150601f19603f3d011682016040523d82523d5f602084013e610c7b565b606091505b5080515f03610ca857604051633250574960e11b81526001600160a01b03851660048201526024016105b0565b805181602001fd5b6001600160e01b03198116630a85bd0160e11b14610cec57604051633250574960e11b81526001600160a01b03851660048201526024016105b0565b5050505050565b6060610cfe82610a00565b505f610d08610feb565b90505f815111610d265760405180602001604052805f81525061095b565b80610d3084610ffa565b604051602001610d41929190611755565b6040516020818303038152906040529392505050565b8080610d6b57506001600160a01b03821615155b15610e2c575f610d7a84610a00565b90506001600160a01b03831615801590610da65750826001600160a01b0316816001600160a01b031614155b8015610db95750610db78184610962565b155b15610de25760405163a9fbf51f60e01b81526001600160a01b03841660048201526024016105b0565b8115610e2a5783856001600160a01b0316826001600160a01b03167f8c5be1e5ebec7d5bd14f71427d1e84f3dd0314c0f7b2291e5b200ac8c7c3b92560405160405180910390a45b505b50505f90815260046020526040902080546001600160a01b0319166001600160a01b0392909216919091179055565b6008546001600160a01b031633146108035760405162461bcd60e51b815260206004820152601060248201526f556e617574686f72697a65642028412960801b60448201526064016105b0565b5f828152600260205260408120546001600160a01b0390811690831615610ed457610ed481848661108a565b6001600160a01b03811615610f0e57610eef5f855f80610d57565b6001600160a01b0381165f90815260036020526040902080545f190190555b6001600160a01b03851615610f3c576001600160a01b0385165f908152600360205260409020805460010190555b5f8481526002602052604080822080546001600160a01b0319166001600160a01b0389811691821790925591518793918516917fddf252ad1be2c89b69c2b068fc378daa952ba7f163c4a11628f55a4df523b3ef91a4949350505050565b600680546001600160a01b038381166001600160a01b0319831681179093556040519116919082907f8be0079c531659141344cd1fd0a4f28419497f9722a3daafe3b4186f6b6457e0905f90a35050565b6060600c805461048490611597565b60605f611006836110ee565b60010190505f8167ffffffffffffffff81111561102557611025611486565b6040519080825280601f01601f19166020018201604052801561104f576020820181803683370190505b5090508181016020015b5f19016f181899199a1a9b1b9c1cb0b131b232b360811b600a86061a8153600a850494508461105957509392505050565b6110958383836111c5565b6106cc576001600160a01b0383166110c357604051637e27328960e01b8152600481018290526024016105b0565b60405163177e802f60e01b81526001600160a01b0383166004820152602481018290526044016105b0565b5f8072184f03e93ff9f4daa797ed6e38ed64bf6a1f0160401b831061112c5772184f03e93ff9f4daa797ed6e38ed64bf6a1f0160401b830492506040015b6d04ee2d6d415b85acef81000000008310611158576d04ee2d6d415b85acef8100000000830492506020015b662386f26fc10000831061117657662386f26fc10000830492506010015b6305f5e100831061118e576305f5e100830492506008015b61271083106111a257612710830492506004015b606483106111b4576064830492506002015b600a831061046f5760010192915050565b5f6001600160a01b03831615801590610aad5750826001600160a01b0316846001600160a01b031614806111fe57506111fe8484610962565b80610aad5750505f908152600460205260409020546001600160a01b03908116911614919050565b6001600160e01b0319811681146106af575f80fd5b5f6020828403121561124b575f80fd5b813561095b81611226565b5f5b83811015611270578181015183820152602001611258565b50505f910152565b5f815180845261128f816020860160208601611256565b601f01601f19169290920160200192915050565b602081525f61095b6020830184611278565b5f602082840312156112c5575f80fd5b5035919050565b80356001600160a01b03811681146112e2575f80fd5b919050565b5f80604083850312156112f8575f80fd5b611301836112cc565b946020939093013593505050565b5f6020828403121561131f575f80fd5b61095b826112cc565b5f8083601f840112611338575f80fd5b50813567ffffffffffffffff81111561134f575f80fd5b602083019150836020828501011115611366575f80fd5b9250929050565b5f805f6040848603121561137f575f80fd5b83359250602084013567ffffffffffffffff81111561139c575f80fd5b6113a886828701611328565b9497909650939450505050565b5f805f606084860312156113c7575f80fd5b6113d0846112cc565b92506113de602085016112cc565b9150604084013590509250925092565b5f80602083850312156113ff575f80fd5b823567ffffffffffffffff811115611415575f80fd5b61142185828601611328565b90969095509350505050565b803580151581146112e2575f80fd5b5f6020828403121561144c575f80fd5b61095b8261142d565b5f8060408385031215611466575f80fd5b61146f836112cc565b915061147d6020840161142d565b90509250929050565b634e487b7160e01b5f52604160045260245ffd5b5f805f80608085870312156114ad575f80fd5b6114b6856112cc565b93506114c4602086016112cc565b925060408501359150606085013567ffffffffffffffff808211156114e7575f80fd5b818701915087601f8301126114fa575f80fd5b81358181111561150c5761150c611486565b604051601f8201601f19908116603f0116810190838211818310171561153457611534611486565b816040528281528a602084870101111561154c575f80fd5b826020860160208301375f60208483010152809550505050505092959194509250565b5f8060408385031215611580575f80fd5b611589836112cc565b915061147d602084016112cc565b600181811c908216806115ab57607f821691505b6020821081036115c957634e487b7160e01b5f52602260045260245ffd5b50919050565b601f8211156106cc57805f5260205f20601f840160051c810160208510156115f45750805b601f840160051c820191505b81811015610cec575f8155600101611600565b67ffffffffffffffff83111561162b5761162b611486565b61163f836116398354611597565b836115cf565b5f601f841160018114611670575f85156116595750838201355b5f19600387901b1c1916600186901b178355610cec565b5f83815260208120601f198716915b8281101561169f578685013582556020948501946001909201910161167f565b50868210156116bb575f1960f88860031b161c19848701351681555b505060018560011b0183555050505050565b5f6001600160801b038083168181036116f457634e487b7160e01b5f52601160045260245ffd5b6001019392505050565b6001600160a01b03858116825284166020820152604081018390526080606082018190525f9061173090830184611278565b9695505050505050565b5f6020828403121561174a575f80fd5b815161095b81611226565b5f8351611766818460208801611256565b83519083019061177a818360208801611256565b0194935050505056fea2646970667358221220bbbf35b222cd80c4338e43e15a5ca701646e3162f945cef44083bd2db218559a64736f6c63430008170033",
    "linkReferences": {}
  },
  "methodIdentifiers": {
    "Auction()": "5fb3e119",
    "LastTokenId()": "158b8e54",
    "Mint(address)": "3c3284d1",
    "OverriedTokenUri(uint256,string)": "22472f54",
    "SetAuction(address)": "16628e0b",
    "SetBaseUri(string)": "afa35f42",
    "SetName(string)": "4df9dcd3",
    "SetSymbol(string)": "adf3ae8b",
    "SetTransferMode(bool)": "5ed1b25d",
    "TokenUriOverride(uint256)": "48b9fed7",
    "TransferDisabled()": "a24e573d",
    "acceptOwnership()": "79ba5097",
    "approve(address,uint256)": "095ea7b3",
    "balanceOf(address)": "70a08231",
    "getApproved(uint256)": "081812fc",
    "isApprovedForAll(address,address)": "e985e9c5",
    "name()": "06fdde03",
    "owner()": "8da5cb5b",
    "ownerOf(uint256)": "6352211e",
    "pendingOwner()": "e30c3978",
    "renounceOwnership()": "715018a6",
    "safeTransferFrom(address,address,uint256)": "42842e0e",
    "safeTransferFrom(address,address,uint256,bytes)": "b88d4fde",
    "setApprovalForAll(address,bool)": "a22cb465",
    "supportsInterface(bytes4)": "01ffc9a7",
    "symbol()": "95d89b41",
    "tokenURI(uint256)": "c87b56dd",
    "transferFrom(address,address,uint256)": "23b872dd",
    "transferOwnership(address)": "f2fde38b"
  },
  "id": 39
}