{
  "abi": [
    {
      "inputs": [
        {
          "internalType": "address",
          "name": "owner",
          "type": "address"
        }
      ],
      "stateMutability": "nonpayable",
      "type": "constructor"
    },
    {
      "inputs": [
        {
          "internalType": "address",
          "name": "sender",
          "type": "address"
        },
        {
          "internalType": "uint256",
          "name": "tokenId",
          "type": "uint256"
        },
        {
          "internalType": "address",
          "name": "owner",
          "type": "address"
        }
      ],
      "name": "ERC721IncorrectOwner",
      "type": "error"
    },
    {
      "inputs": [
        {
          "internalType": "address",
          "name": "operator",
          "type": "address"
        },
        {
          "internalType": "uint256",
          "name": "tokenId",
          "type": "uint256"
        }
      ],
      "name": "ERC721InsufficientApproval",
      "type": "error"
    },
    {
      "inputs": [
        {
          "internalType": "address",
          "name": "approver",
          "type": "address"
        }
      ],
      "name": "ERC721InvalidApprover",
      "type": "error"
    },
    {
      "inputs": [
        {
          "internalType": "address",
          "name": "operator",
          "type": "address"
        }
      ],
      "name": "ERC721InvalidOperator",
      "type": "error"
    },
    {
      "inputs": [
        {
          "internalType": "address",
          "name": "owner",
          "type": "address"
        }
      ],
      "name": "ERC721InvalidOwner",
      "type": "error"
    },
    {
      "inputs": [
        {
          "internalType": "address",
          "name": "receiver",
          "type": "address"
        }
      ],
      "name": "ERC721InvalidReceiver",
      "type": "error"
    },
    {
      "inputs": [
        {
          "internalType": "address",
          "name": "sender",
          "type": "address"
        }
      ],
      "name": "ERC721InvalidSender",
      "type": "error"
    },
    {
      "inputs": [
        {
          "internalType": "uint256",
          "name": "tokenId",
          "type": "uint256"
        }
      ],
      "name": "ERC721NonexistentToken",
      "type": "error"
    },
    {
      "inputs": [
        {
          "internalType": "address",
          "name": "owner",
          "type": "address"
        }
      ],
      "name": "OwnableInvalidOwner",
      "type": "error"
    },
    {
      "inputs": [
        {
          "internalType": "address",
          "name": "account",
          "type": "address"
        }
      ],
      "name": "OwnableUnauthorizedAccount",
      "type": "error"
    },
    {
      "anonymous": false,
      "inputs": [
        {
          "indexed": true,
          "internalType": "address",
          "name": "owner",
          "type": "address"
        },
        {
          "indexed": true,
          "internalType": "address",
          "name": "approved",
          "type": "address"
        },
        {
          "indexed": true,
          "internalType": "uint256",
          "name": "tokenId",
          "type": "uint256"
        }
      ],
      "name": "Approval",
      "type": "event"
    },
    {
      "anonymous": false,
      "inputs": [
        {
          "indexed": true,
          "internalType": "address",
          "name": "owner",
          "type": "address"
        },
        {
          "indexed": true,
          "internalType": "address",
          "name": "operator",
          "type": "address"
        },
        {
          "indexed": false,
          "internalType": "bool",
          "name": "approved",
          "type": "bool"
        }
      ],
      "name": "ApprovalForAll",
      "type": "event"
    },
    {
      "anonymous": false,
      "inputs": [
        {
          "indexed": true,
          "internalType": "address",
          "name": "previousOwner",
          "type": "address"
        },
        {
          "indexed": true,
          "internalType": "address",
          "name": "newOwner",
          "type": "address"
        }
      ],
      "name": "OwnershipTransferStarted",
      "type": "event"
    },
    {
      "anonymous": false,
      "inputs": [
        {
          "indexed": true,
          "internalType": "address",
          "name": "previousOwner",
          "type": "address"
        },
        {
          "indexed": true,
          "internalType": "address",
          "name": "newOwner",
          "type": "address"
        }
      ],
      "name": "OwnershipTransferred",
      "type": "event"
    },
    {
      "anonymous": false,
      "inputs": [
        {
          "indexed": true,
          "internalType": "address",
          "name": "from",
          "type": "address"
        },
        {
          "indexed": true,
          "internalType": "address",
          "name": "to",
          "type": "address"
        },
        {
          "indexed": true,
          "internalType": "uint256",
          "name": "tokenId",
          "type": "uint256"
        }
      ],
      "name": "Transfer",
      "type": "event"
    },
    {
      "inputs": [],
      "name": "Auction",
      "outputs": [
        {
          "internalType": "address",
          "name": "",
          "type": "address"
        }
      ],
      "stateMutability": "view",
      "type": "function"
    },
    {
      "inputs": [],
      "name": "LastTokenId",
      "outputs": [
        {
          "internalType": "uint128",
          "name": "",
          "type": "uint128"
        }
      ],
      "stateMutability": "view",
      "type": "function"
    },
    {
      "inputs": [
        {
          "internalType": "address",
          "name": "user",
          "type": "address"
        }
      ],
      "name": "Mint",
      "outputs": [],
      "stateMutability": "nonpayable",
      "type": "function"
    },
    {
      "inputs": [
        {
          "internalType": "address",
          "name": "auction",
          "type": "address"
        }
      ],
      "name": "SetAuction",
      "outputs": [],
      "stateMutability": "nonpayable",
      "type": "function"
    },
    {
      "inputs": [
        {
          "internalType": "bool",
          "name": "transferDisabled",
          "type": "bool"
        }
      ],
      "name": "SetTransferMode",
      "outputs": [],
      "stateMutability": "nonpayable",
      "type": "function"
    },
    {
      "inputs": [],
      "name": "TransferDisabled",
      "outputs": [
        {
          "internalType": "bool",
          "name": "",
          "type": "bool"
        }
      ],
      "stateMutability": "view",
      "type": "function"
    },
    {
      "inputs": [],
      "name": "acceptOwnership",
      "outputs": [],
      "stateMutability": "nonpayable",
      "type": "function"
    },
    {
      "inputs": [
        {
          "internalType": "address",
          "name": "to",
          "type": "address"
        },
        {
          "internalType": "uint256",
          "name": "tokenId",
          "type": "uint256"
        }
      ],
      "name": "approve",
      "outputs": [],
      "stateMutability": "nonpayable",
      "type": "function"
    },
    {
      "inputs": [
        {
          "internalType": "address",
          "name": "owner",
          "type": "address"
        }
      ],
      "name": "balanceOf",
      "outputs": [
        {
          "internalType": "uint256",
          "name": "",
          "type": "uint256"
        }
      ],
      "stateMutability": "view",
      "type": "function"
    },
    {
      "inputs": [
        {
          "internalType": "uint256",
          "name": "tokenId",
          "type": "uint256"
        }
      ],
      "name": "getApproved",
      "outputs": [
        {
          "internalType": "address",
          "name": "",
          "type": "address"
        }
      ],
      "stateMutability": "view",
      "type": "function"
    },
    {
      "inputs": [
        {
          "internalType": "address",
          "name": "owner",
          "type": "address"
        },
        {
          "internalType": "address",
          "name": "operator",
          "type": "address"
        }
      ],
      "name": "isApprovedForAll",
      "outputs": [
        {
          "internalType": "bool",
          "name": "",
          "type": "bool"
        }
      ],
      "stateMutability": "view",
      "type": "function"
    },
    {
      "inputs": [],
      "name": "name",
      "outputs": [
        {
          "internalType": "string",
          "name": "",
          "type": "string"
        }
      ],
      "stateMutability": "view",
      "type": "function"
    },
    {
      "inputs": [],
      "name": "owner",
      "outputs": [
        {
          "internalType": "address",
          "name": "",
          "type": "address"
        }
      ],
      "stateMutability": "view",
      "type": "function"
    },
    {
      "inputs": [
        {
          "internalType": "uint256",
          "name": "tokenId",
          "type": "uint256"
        }
      ],
      "name": "ownerOf",
      "outputs": [
        {
          "internalType": "address",
          "name": "",
          "type": "address"
        }
      ],
      "stateMutability": "view",
      "type": "function"
    },
    {
      "inputs": [],
      "name": "pendingOwner",
      "outputs": [
        {
          "internalType": "address",
          "name": "",
          "type": "address"
        }
      ],
      "stateMutability": "view",
      "type": "function"
    },
    {
      "inputs": [],
      "name": "renounceOwnership",
      "outputs": [],
      "stateMutability": "nonpayable",
      "type": "function"
    },
    {
      "inputs": [
        {
          "internalType": "address",
          "name": "from",
          "type": "address"
        },
        {
          "internalType": "address",
          "name": "to",
          "type": "address"
        },
        {
          "internalType": "uint256",
          "name": "tokenId",
          "type": "uint256"
        }
      ],
      "name": "safeTransferFrom",
      "outputs": [],
      "stateMutability": "nonpayable",
      "type": "function"
    },
    {
      "inputs": [
        {
          "internalType": "address",
          "name": "from",
          "type": "address"
        },
        {
          "internalType": "address",
          "name": "to",
          "type": "address"
        },
        {
          "internalType": "uint256",
          "name": "tokenId",
          "type": "uint256"
        },
        {
          "internalType": "bytes",
          "name": "data",
          "type": "bytes"
        }
      ],
      "name": "safeTransferFrom",
      "outputs": [],
      "stateMutability": "nonpayable",
      "type": "function"
    },
    {
      "inputs": [
        {
          "internalType": "address",
          "name": "operator",
          "type": "address"
        },
        {
          "internalType": "bool",
          "name": "approved",
          "type": "bool"
        }
      ],
      "name": "setApprovalForAll",
      "outputs": [],
      "stateMutability": "nonpayable",
      "type": "function"
    },
    {
      "inputs": [
        {
          "internalType": "bytes4",
          "name": "interfaceId",
          "type": "bytes4"
        }
      ],
      "name": "supportsInterface",
      "outputs": [
        {
          "internalType": "bool",
          "name": "",
          "type": "bool"
        }
      ],
      "stateMutability": "view",
      "type": "function"
    },
    {
      "inputs": [],
      "name": "symbol",
      "outputs": [
        {
          "internalType": "string",
          "name": "",
          "type": "string"
        }
      ],
      "stateMutability": "view",
      "type": "function"
    },
    {
      "inputs": [
        {
          "internalType": "uint256",
          "name": "tokenId",
          "type": "uint256"
        }
      ],
      "name": "tokenURI",
      "outputs": [
        {
          "internalType": "string",
          "name": "",
          "type": "string"
        }
      ],
      "stateMutability": "view",
      "type": "function"
    },
    {
      "inputs": [
        {
          "internalType": "address",
          "name": "from",
          "type": "address"
        },
        {
          "internalType": "address",
          "name": "to",
          "type": "address"
        },
        {
          "internalType": "uint256",
          "name": "tokenId",
          "type": "uint256"
        }
      ],
      "name": "transferFrom",
      "outputs": [],
      "stateMutability": "nonpayable",
      "type": "function"
    },
    {
      "inputs": [
        {
          "internalType": "address",
          "name": "newOwner",
          "type": "address"
        }
      ],
      "name": "transferOwnership",
      "outputs": [],
      "stateMutability": "nonpayable",
      "type": "function"
    }
  ],
  "bytecode": {
    "object": "0x60806040526009805460ff60801b1916600160801b17905534801562000023575f80fd5b506040516200168238038062001682833981016040819052620000469162000178565b8060405180604001604052806009815260200168094deca409acae4c6d60bb1b81525060405180604001604052806004815260200163244a4f4560e01b815250815f908162000096919062000245565b506001620000a5828262000245565b5050506001600160a01b038116620000d657604051631e4fbdf760e01b81525f600482015260240160405180910390fd5b620000e18162000109565b5050600880546001600160a01b0319169055600980546001600160801b031916905562000311565b600780546001600160a01b0319169055620001248162000127565b50565b600680546001600160a01b038381166001600160a01b0319831681179093556040519116919082907f8be0079c531659141344cd1fd0a4f28419497f9722a3daafe3b4186f6b6457e0905f90a35050565b5f6020828403121562000189575f80fd5b81516001600160a01b0381168114620001a0575f80fd5b9392505050565b634e487b7160e01b5f52604160045260245ffd5b600181811c90821680620001d057607f821691505b602082108103620001ef57634e487b7160e01b5f52602260045260245ffd5b50919050565b601f8211156200024057805f5260205f20601f840160051c810160208510156200021c5750805b601f840160051c820191505b818110156200023d575f815560010162000228565b50505b505050565b81516001600160401b03811115620002615762000261620001a7565b6200027981620002728454620001bb565b84620001f5565b602080601f831160018114620002af575f8415620002975750858301515b5f19600386901b1c1916600185901b17855562000309565b5f85815260208120601f198616915b82811015620002df57888601518255948401946001909101908401620002be565b5085821015620002fd57878501515f19600388901b60f8161c191681555b505060018460011b0185555b505050505050565b611363806200031f5f395ff3fe608060405234801561000f575f80fd5b5060043610610153575f3560e01c806370a08231116100bf578063a24e573d11610079578063a24e573d146102e1578063b88d4fde146102f5578063c87b56dd14610308578063e30c39781461031b578063e985e9c51461032c578063f2fde38b1461033f575f80fd5b806370a0823114610284578063715018a6146102a557806379ba5097146102ad5780638da5cb5b146102b557806395d89b41146102c6578063a22cb465146102ce575f80fd5b806323b872dd1161011057806323b872dd146102125780633c3284d11461022557806342842e0e146102385780635ed1b25d1461024b5780635fb3e1191461025e5780636352211e14610271575f80fd5b806301ffc9a71461015757806306fdde031461017f578063081812fc14610194578063095ea7b3146101bf578063158b8e54146101d457806316628e0b146101ff575b5f80fd5b61016a610165366004610faf565b610352565b60405190151581526020015b60405180910390f35b6101876103a3565b6040516101769190611017565b6101a76101a2366004611029565b610432565b6040516001600160a01b039091168152602001610176565b6101d26101cd36600461105b565b610459565b005b6009546101e7906001600160801b031681565b6040516001600160801b039091168152602001610176565b6101d261020d366004611083565b610468565b6101d261022036600461109c565b610492565b6101d2610233366004611083565b610520565b6101d261024636600461109c565b6105bf565b6101d26102593660046110e4565b6105de565b6008546101a7906001600160a01b031681565b6101a761027f366004611029565b610604565b610297610292366004611083565b61060e565b604051908152602001610176565b6101d2610653565b6101d2610666565b6006546001600160a01b03166101a7565b6101876106a7565b6101d26102dc3660046110fd565b6106b6565b60095461016a90600160801b900460ff1681565b6101d2610303366004611142565b6106c1565b610187610316366004611029565b6106d8565b6007546001600160a01b03166101a7565b61016a61033a366004611217565b610749565b6101d261034d366004611083565b610776565b5f6001600160e01b031982166380ac58cd60e01b148061038257506001600160e01b03198216635b5e139f60e01b145b8061039d57506301ffc9a760e01b6001600160e01b03198316145b92915050565b60605f80546103b19061123f565b80601f01602080910402602001604051908101604052809291908181526020018280546103dd9061123f565b80156104285780601f106103ff57610100808354040283529160200191610428565b820191905f5260205f20905b81548152906001019060200180831161040b57829003601f168201915b5050505050905090565b5f61043c826107e7565b505f828152600460205260409020546001600160a01b031661039d565b61046482823361081f565b5050565b61047061082c565b600880546001600160a01b0319166001600160a01b0392909216919091179055565b6001600160a01b0382166104c057604051633250574960e11b81525f60048201526024015b60405180910390fd5b5f6104cc838333610859565b9050836001600160a01b0316816001600160a01b03161461051a576040516364283d7b60e01b81526001600160a01b03808616600483015260248201849052821660448201526064016104b7565b50505050565b6008546001600160a01b0316331461056d5760405162461bcd60e51b815260206004820152601060248201526f556e617574686f72697a65642028412960801b60448201526064016104b7565b600980546105bc9183915f9061058b906001600160801b0316611277565b91906101000a8154816001600160801b0302191690836001600160801b0316021790556001600160801b031661089c565b50565b6105d983838360405180602001604052805f8152506106c1565b505050565b6105e661082c565b60098054911515600160801b0260ff60801b19909216919091179055565b5f61039d826107e7565b5f6001600160a01b038216610638576040516322718ad960e21b81525f60048201526024016104b7565b506001600160a01b03165f9081526003602052604090205490565b61065b61082c565b6106645f6108fd565b565b60075433906001600160a01b0316811461069e5760405163118cdaa760e01b81526001600160a01b03821660048201526024016104b7565b6105bc816108fd565b6060600180546103b19061123f565b610464338383610916565b6106cc848484610492565b61051a848484846109b4565b60606106e3826107e7565b505f6106f960408051602081019091525f815290565b90505f8151116107175760405180602001604052805f815250610742565b8061072184610ada565b6040516020016107329291906112a8565b6040516020818303038152906040525b9392505050565b6001600160a01b039182165f90815260056020908152604080832093909416825291909152205460ff1690565b61077e61082c565b600780546001600160a01b0383166001600160a01b031990911681179091556107af6006546001600160a01b031690565b6001600160a01b03167f38d16b8cac22d99fc7c124b9cd0de2d3fa1faef420bfe791d8c362d765e2270060405160405180910390a350565b5f818152600260205260408120546001600160a01b03168061039d57604051637e27328960e01b8152600481018490526024016104b7565b6105d98383836001610b6a565b6006546001600160a01b031633146106645760405163118cdaa760e01b81523360048201526024016104b7565b6009545f90600160801b900460ff16801561087c57506001600160a01b03841615155b1561088957610889610c6e565b610894848484610cbb565b949350505050565b6001600160a01b0382166108c557604051633250574960e11b81525f60048201526024016104b7565b5f6108d183835f610859565b90506001600160a01b038116156105d9576040516339e3563760e11b81525f60048201526024016104b7565b600780546001600160a01b03191690556105bc81610dad565b6001600160a01b03821661094857604051630b61174360e31b81526001600160a01b03831660048201526024016104b7565b6001600160a01b038381165f81815260056020908152604080832094871680845294825291829020805460ff191686151590811790915591519182527f17307eab39ab6107e8899845ad3d59bd9653f200f220920489ca2b5937696c31910160405180910390a3505050565b6001600160a01b0383163b1561051a57604051630a85bd0160e11b81526001600160a01b0384169063150b7a02906109f69033908890879087906004016112d6565b6020604051808303815f875af1925050508015610a30575060408051601f3d908101601f19168201909252610a2d91810190611312565b60015b610a97573d808015610a5d576040519150601f19603f3d011682016040523d82523d5f602084013e610a62565b606091505b5080515f03610a8f57604051633250574960e11b81526001600160a01b03851660048201526024016104b7565b805181602001fd5b6001600160e01b03198116630a85bd0160e11b14610ad357604051633250574960e11b81526001600160a01b03851660048201526024016104b7565b5050505050565b60605f610ae683610dfe565b60010190505f8167ffffffffffffffff811115610b0557610b0561112e565b6040519080825280601f01601f191660200182016040528015610b2f576020820181803683370190505b5090508181016020015b5f19016f181899199a1a9b1b9c1cb0b131b232b360811b600a86061a8153600a8504945084610b3957509392505050565b8080610b7e57506001600160a01b03821615155b15610c3f575f610b8d846107e7565b90506001600160a01b03831615801590610bb95750826001600160a01b0316816001600160a01b031614155b8015610bcc5750610bca8184610749565b155b15610bf55760405163a9fbf51f60e01b81526001600160a01b03841660048201526024016104b7565b8115610c3d5783856001600160a01b0316826001600160a01b03167f8c5be1e5ebec7d5bd14f71427d1e84f3dd0314c0f7b2291e5b200ac8c7c3b92560405160405180910390a45b505b50505f90815260046020526040902080546001600160a01b0319166001600160a01b0392909216919091179055565b6008546001600160a01b031633146106645760405162461bcd60e51b815260206004820152601060248201526f556e617574686f72697a65642028412960801b60448201526064016104b7565b5f828152600260205260408120546001600160a01b0390811690831615610ce757610ce7818486610ed5565b6001600160a01b03811615610d2157610d025f855f80610b6a565b6001600160a01b0381165f90815260036020526040902080545f190190555b6001600160a01b03851615610d4f576001600160a01b0385165f908152600360205260409020805460010190555b5f8481526002602052604080822080546001600160a01b0319166001600160a01b0389811691821790925591518793918516917fddf252ad1be2c89b69c2b068fc378daa952ba7f163c4a11628f55a4df523b3ef91a4949350505050565b600680546001600160a01b038381166001600160a01b0319831681179093556040519116919082907f8be0079c531659141344cd1fd0a4f28419497f9722a3daafe3b4186f6b6457e0905f90a35050565b5f8072184f03e93ff9f4daa797ed6e38ed64bf6a1f0160401b8310610e3c5772184f03e93ff9f4daa797ed6e38ed64bf6a1f0160401b830492506040015b6d04ee2d6d415b85acef81000000008310610e68576d04ee2d6d415b85acef8100000000830492506020015b662386f26fc100008310610e8657662386f26fc10000830492506010015b6305f5e1008310610e9e576305f5e100830492506008015b6127108310610eb257612710830492506004015b60648310610ec4576064830492506002015b600a831061039d5760010192915050565b610ee0838383610f39565b6105d9576001600160a01b038316610f0e57604051637e27328960e01b8152600481018290526024016104b7565b60405163177e802f60e01b81526001600160a01b0383166004820152602481018290526044016104b7565b5f6001600160a01b038316158015906108945750826001600160a01b0316846001600160a01b03161480610f725750610f728484610749565b806108945750505f908152600460205260409020546001600160a01b03908116911614919050565b6001600160e01b0319811681146105bc575f80fd5b5f60208284031215610fbf575f80fd5b813561074281610f9a565b5f5b83811015610fe4578181015183820152602001610fcc565b50505f910152565b5f8151808452611003816020860160208601610fca565b601f01601f19169290920160200192915050565b602081525f6107426020830184610fec565b5f60208284031215611039575f80fd5b5035919050565b80356001600160a01b0381168114611056575f80fd5b919050565b5f806040838503121561106c575f80fd5b61107583611040565b946020939093013593505050565b5f60208284031215611093575f80fd5b61074282611040565b5f805f606084860312156110ae575f80fd5b6110b784611040565b92506110c560208501611040565b9150604084013590509250925092565b80358015158114611056575f80fd5b5f602082840312156110f4575f80fd5b610742826110d5565b5f806040838503121561110e575f80fd5b61111783611040565b9150611125602084016110d5565b90509250929050565b634e487b7160e01b5f52604160045260245ffd5b5f805f8060808587031215611155575f80fd5b61115e85611040565b935061116c60208601611040565b925060408501359150606085013567ffffffffffffffff8082111561118f575f80fd5b818701915087601f8301126111a2575f80fd5b8135818111156111b4576111b461112e565b604051601f8201601f19908116603f011681019083821181831017156111dc576111dc61112e565b816040528281528a60208487010111156111f4575f80fd5b826020860160208301375f60208483010152809550505050505092959194509250565b5f8060408385031215611228575f80fd5b61123183611040565b915061112560208401611040565b600181811c9082168061125357607f821691505b60208210810361127157634e487b7160e01b5f52602260045260245ffd5b50919050565b5f6001600160801b0380831681810361129e57634e487b7160e01b5f52601160045260245ffd5b6001019392505050565b5f83516112b9818460208801610fca565b8351908301906112cd818360208801610fca565b01949350505050565b6001600160a01b03858116825284166020820152604081018390526080606082018190525f9061130890830184610fec565b9695505050505050565b5f60208284031215611322575f80fd5b815161074281610f9a56fea2646970667358221220201a0e774ec0a76afd4bb95c8333fc5a97a971e2de27e694aabedbe02477c4d364736f6c63430008170033",
    "linkReferences": {}
  },
  "methodIdentifiers": {
    "Auction()": "5fb3e119",
    "LastTokenId()": "158b8e54",
    "Mint(address)": "3c3284d1",
    "SetAuction(address)": "16628e0b",
    "SetTransferMode(bool)": "5ed1b25d",
    "TransferDisabled()": "a24e573d",
    "acceptOwnership()": "79ba5097",
    "approve(address,uint256)": "095ea7b3",
    "balanceOf(address)": "70a08231",
    "getApproved(uint256)": "081812fc",
    "isApprovedForAll(address,address)": "e985e9c5",
    "name()": "06fdde03",
    "owner()": "8da5cb5b",
    "ownerOf(uint256)": "6352211e",
    "pendingOwner()": "e30c3978",
    "renounceOwnership()": "715018a6",
    "safeTransferFrom(address,address,uint256)": "42842e0e",
    "safeTransferFrom(address,address,uint256,bytes)": "b88d4fde",
    "setApprovalForAll(address,bool)": "a22cb465",
    "supportsInterface(bytes4)": "01ffc9a7",
    "symbol()": "95d89b41",
    "tokenURI(uint256)": "c87b56dd",
    "transferFrom(address,address,uint256)": "23b872dd",
    "transferOwnership(address)": "f2fde38b"
  },
  "id": 39
}