{
  "abi": [
    {
      "inputs": [
        {
          "internalType": "address",
          "name": "owner",
          "type": "address"
        },
        {
          "internalType": "address",
          "name": "executor",
          "type": "address"
        }
      ],
      "stateMutability": "nonpayable",
      "type": "constructor"
    },
    {
      "inputs": [
        {
          "internalType": "address",
          "name": "owner",
          "type": "address"
        }
      ],
      "name": "OwnableInvalidOwner",
      "type": "error"
    },
    {
      "inputs": [
        {
          "internalType": "address",
          "name": "account",
          "type": "address"
        }
      ],
      "name": "OwnableUnauthorizedAccount",
      "type": "error"
    },
    {
      "anonymous": false,
      "inputs": [
        {
          "indexed": true,
          "internalType": "uint256",
          "name": "StartTime",
          "type": "uint256"
        },
        {
          "indexed": true,
          "internalType": "uint256",
          "name": "EndTime",
          "type": "uint256"
        },
        {
          "indexed": false,
          "internalType": "uint256",
          "name": "StartBid",
          "type": "uint256"
        }
      ],
      "name": "AuctionLaunched",
      "type": "event"
    },
    {
      "anonymous": false,
      "inputs": [
        {
          "indexed": true,
          "internalType": "address",
          "name": "Wallet",
          "type": "address"
        },
        {
          "indexed": true,
          "internalType": "uint256",
          "name": "AuctionStartTime",
          "type": "uint256"
        },
        {
          "indexed": false,
          "internalType": "uint256",
          "name": "Size",
          "type": "uint256"
        },
        {
          "indexed": false,
          "internalType": "uint256",
          "name": "AuctionEndTime",
          "type": "uint256"
        },
        {
          "indexed": false,
          "internalType": "int256",
          "name": "Transferred",
          "type": "int256"
        }
      ],
      "name": "BidPlaced",
      "type": "event"
    },
    {
      "anonymous": false,
      "inputs": [
        {
          "indexed": true,
          "internalType": "address",
          "name": "previousOwner",
          "type": "address"
        },
        {
          "indexed": true,
          "internalType": "address",
          "name": "newOwner",
          "type": "address"
        }
      ],
      "name": "OwnershipTransferStarted",
      "type": "event"
    },
    {
      "anonymous": false,
      "inputs": [
        {
          "indexed": true,
          "internalType": "address",
          "name": "previousOwner",
          "type": "address"
        },
        {
          "indexed": true,
          "internalType": "address",
          "name": "newOwner",
          "type": "address"
        }
      ],
      "name": "OwnershipTransferred",
      "type": "event"
    },
    {
      "anonymous": false,
      "inputs": [
        {
          "indexed": true,
          "internalType": "address",
          "name": "Wallet",
          "type": "address"
        },
        {
          "indexed": true,
          "internalType": "uint256",
          "name": "AuctionStartTime",
          "type": "uint256"
        },
        {
          "indexed": false,
          "internalType": "uint256",
          "name": "Size",
          "type": "uint256"
        }
      ],
      "name": "RefundClaimed",
      "type": "event"
    },
    {
      "anonymous": false,
      "inputs": [
        {
          "indexed": true,
          "internalType": "uint256",
          "name": "AuctionStartTime",
          "type": "uint256"
        },
        {
          "indexed": true,
          "internalType": "address",
          "name": "Wallet",
          "type": "address"
        },
        {
          "indexed": true,
          "internalType": "uint256",
          "name": "BidSize",
          "type": "uint256"
        }
      ],
      "name": "RewardIssued",
      "type": "event"
    },
    {
      "inputs": [],
      "name": "AuctionEndTime",
      "outputs": [
        {
          "internalType": "uint40",
          "name": "",
          "type": "uint40"
        }
      ],
      "stateMutability": "view",
      "type": "function"
    },
    {
      "inputs": [],
      "name": "AuctionStartTime",
      "outputs": [
        {
          "internalType": "uint40",
          "name": "",
          "type": "uint40"
        }
      ],
      "stateMutability": "view",
      "type": "function"
    },
    {
      "inputs": [],
      "name": "AuctionTimeExtraWindow",
      "outputs": [
        {
          "internalType": "uint40",
          "name": "",
          "type": "uint40"
        }
      ],
      "stateMutability": "view",
      "type": "function"
    },
    {
      "inputs": [],
      "name": "BestBidWallet",
      "outputs": [
        {
          "internalType": "address",
          "name": "",
          "type": "address"
        }
      ],
      "stateMutability": "view",
      "type": "function"
    },
    {
      "inputs": [],
      "name": "BidIncrement",
      "outputs": [
        {
          "internalType": "uint96",
          "name": "",
          "type": "uint96"
        }
      ],
      "stateMutability": "view",
      "type": "function"
    },
    {
      "inputs": [
        {
          "internalType": "address",
          "name": "",
          "type": "address"
        }
      ],
      "name": "Bids",
      "outputs": [
        {
          "internalType": "uint96",
          "name": "CurrentUserBid",
          "type": "uint96"
        },
        {
          "internalType": "uint40",
          "name": "BidTime",
          "type": "uint40"
        }
      ],
      "stateMutability": "view",
      "type": "function"
    },
    {
      "inputs": [],
      "name": "ClaimReward",
      "outputs": [],
      "stateMutability": "nonpayable",
      "type": "function"
    },
    {
      "inputs": [],
      "name": "Executor",
      "outputs": [
        {
          "internalType": "address",
          "name": "",
          "type": "address"
        }
      ],
      "stateMutability": "view",
      "type": "function"
    },
    {
      "inputs": [],
      "name": "IsAlive",
      "outputs": [
        {
          "internalType": "bool",
          "name": "",
          "type": "bool"
        }
      ],
      "stateMutability": "view",
      "type": "function"
    },
    {
      "inputs": [
        {
          "internalType": "uint40",
          "name": "endTime",
          "type": "uint40"
        },
        {
          "internalType": "uint96",
          "name": "minBid",
          "type": "uint96"
        }
      ],
      "name": "LaunchAuction",
      "outputs": [],
      "stateMutability": "nonpayable",
      "type": "function"
    },
    {
      "inputs": [],
      "name": "MerchNft",
      "outputs": [
        {
          "internalType": "address",
          "name": "",
          "type": "address"
        }
      ],
      "stateMutability": "view",
      "type": "function"
    },
    {
      "inputs": [
        {
          "internalType": "address[]",
          "name": "targets",
          "type": "address[]"
        },
        {
          "internalType": "uint256[]",
          "name": "values",
          "type": "uint256[]"
        },
        {
          "internalType": "bytes[]",
          "name": "calldatas",
          "type": "bytes[]"
        }
      ],
      "name": "Multicall",
      "outputs": [],
      "stateMutability": "payable",
      "type": "function"
    },
    {
      "inputs": [
        {
          "internalType": "uint256",
          "name": "bidSize",
          "type": "uint256"
        }
      ],
      "name": "PlaceBid",
      "outputs": [],
      "stateMutability": "nonpayable",
      "type": "function"
    },
    {
      "inputs": [],
      "name": "RedeemRefund",
      "outputs": [],
      "stateMutability": "nonpayable",
      "type": "function"
    },
    {
      "inputs": [
        {
          "internalType": "uint40",
          "name": "newValue",
          "type": "uint40"
        }
      ],
      "name": "SetAuctionTimeExtraWindow",
      "outputs": [],
      "stateMutability": "nonpayable",
      "type": "function"
    },
    {
      "inputs": [
        {
          "internalType": "uint96",
          "name": "newValue",
          "type": "uint96"
        }
      ],
      "name": "SetBidIncrement",
      "outputs": [],
      "stateMutability": "nonpayable",
      "type": "function"
    },
    {
      "inputs": [
        {
          "internalType": "address",
          "name": "executor",
          "type": "address"
        }
      ],
      "name": "SetExecutor",
      "outputs": [],
      "stateMutability": "nonpayable",
      "type": "function"
    },
    {
      "inputs": [
        {
          "internalType": "address",
          "name": "newValue",
          "type": "address"
        }
      ],
      "name": "SetMerchNft",
      "outputs": [],
      "stateMutability": "nonpayable",
      "type": "function"
    },
    {
      "inputs": [],
      "name": "Withdraw",
      "outputs": [],
      "stateMutability": "nonpayable",
      "type": "function"
    },
    {
      "inputs": [],
      "name": "WithdrawBalance",
      "outputs": [
        {
          "internalType": "uint96",
          "name": "",
          "type": "uint96"
        }
      ],
      "stateMutability": "view",
      "type": "function"
    },
    {
      "inputs": [],
      "name": "acceptOwnership",
      "outputs": [],
      "stateMutability": "nonpayable",
      "type": "function"
    },
    {
      "inputs": [],
      "name": "owner",
      "outputs": [
        {
          "internalType": "address",
          "name": "",
          "type": "address"
        }
      ],
      "stateMutability": "view",
      "type": "function"
    },
    {
      "inputs": [],
      "name": "pendingOwner",
      "outputs": [
        {
          "internalType": "address",
          "name": "",
          "type": "address"
        }
      ],
      "stateMutability": "view",
      "type": "function"
    },
    {
      "inputs": [],
      "name": "renounceOwnership",
      "outputs": [],
      "stateMutability": "nonpayable",
      "type": "function"
    },
    {
      "inputs": [
        {
          "internalType": "address",
          "name": "newOwner",
          "type": "address"
        }
      ],
      "name": "transferOwnership",
      "outputs": [],
      "stateMutability": "nonpayable",
      "type": "function"
    }
  ],
  "bytecode": {
    "object": "0x608060405234801562000010575f80fd5b5060405162001910380380620019108339810160408190526200003391620001db565b8181816001600160a01b0381166200006457604051631e4fbdf760e01b81525f600482015260240160405180910390fd5b6200006f8162000152565b50600280546001600160a01b03199081166001600160a01b0393841617909155604080518082019091525f8082526001602080840191825291859052600490915290517f3569f564c44c2d85a381a1123e4afebef0204e2bb799b725ae533e5c15f0829d8054925164ffffffffff166c01000000000000000000000000026001600160881b03199093166001600160601b0390921691909117919091179055600380549091169091179055505060058054600160601b600160e81b0319167903840000003635c9adc5dea000000000000000000000000000001790555062000211565b600180546001600160a01b03191690556200016d8162000170565b50565b5f80546001600160a01b038381166001600160a01b0319831681178455604051919092169283917f8be0079c531659141344cd1fd0a4f28419497f9722a3daafe3b4186f6b6457e09190a35050565b80516001600160a01b0381168114620001d6575f80fd5b919050565b5f8060408385031215620001ed575f80fd5b620001f883620001bf565b91506200020860208401620001bf565b90509250929050565b6116f1806200021f5f395ff3fe608060405260043610610161575f3560e01c80637ec2dad6116100cd578063c028abfb11610087578063e30c397811610062578063e30c39781461046e578063e4fb56131461048b578063f2fde38b1461049f578063f3c88510146104be575f80fd5b8063c028abfb1461041d578063c4513b181461043c578063d818cf201461045b575f80fd5b80637ec2dad6146103475780638da5cb5b14610366578063967e5e9514610382578063a39d716d146103a1578063b2048e5e146103d8578063bc537b76146103fe575f80fd5b806357ea89b61161011e57806357ea89b6146102b9578063600d55c1146102cd57806360869e0e146102ec578063715018a61461030b57806379372f9a1461031f57806379ba509714610333575f80fd5b80630251e03e146101655780630d6e4f08146101d35780631fc09c941461020d57806331bdf5ca1461023d57806334d4f6a5146102615780634d86003e14610282575b5f80fd5b348015610170575f80fd5b506101a961017f3660046112e8565b60046020525f90815260409020546001600160601b03811690600160601b900464ffffffffff1682565b604080516001600160601b03909316835264ffffffffff9091166020830152015b60405180910390f35b3480156101de575f80fd5b506005546101f790600160c01b900464ffffffffff1681565b60405164ffffffffff90911681526020016101ca565b348015610218575f80fd5b50600254600160a01b900464ffffffffff1642111560405190151581526020016101ca565b348015610248575f80fd5b506002546101f790600160c81b900464ffffffffff1681565b34801561026c575f80fd5b5061028061027b3660046112e8565b6104e2565b005b34801561028d575f80fd5b506002546102a1906001600160a01b031681565b6040516001600160a01b0390911681526020016101ca565b3480156102c4575f80fd5b5061028061050c565b3480156102d8575f80fd5b506006546102a1906001600160a01b031681565b3480156102f7575f80fd5b5061028061030636600461132e565b61061f565b348015610316575f80fd5b5061028061064f565b34801561032a575f80fd5b50610280610662565b34801561033e575f80fd5b5061028061066a565b348015610352575f80fd5b5061028061036136600461135d565b6106ae565b348015610371575f80fd5b505f546001600160a01b03166102a1565b34801561038d575f80fd5b5061028061039c366004611376565b6106e7565b3480156103ac575f80fd5b506005546103c0906001600160601b031681565b6040516001600160601b0390911681526020016101ca565b3480156103e3575f80fd5b506005546103c090600160601b90046001600160601b031681565b348015610409575f80fd5b506003546102a1906001600160a01b031681565b348015610428575f80fd5b506102806104373660046112e8565b610b58565b348015610447575f80fd5b5061028061045636600461138d565b610b82565b61028061046936600461144b565b610d37565b348015610479575f80fd5b506001546001600160a01b03166102a1565b348015610496575f80fd5b50610280610e5b565b3480156104aa575f80fd5b506102806104b93660046112e8565b611024565b3480156104c9575f80fd5b506002546101f790600160a01b900464ffffffffff1681565b6104ea611094565b600280546001600160a01b0319166001600160a01b0392909216919091179055565b6002546001600160a01b0316331461055e5760405162461bcd60e51b815260206004820152601060248201526f556e617574686f72697a65642028452960801b60448201526064015b60405180910390fd5b600580546001600160601b031981169091556001600160601b03167376e222b07c53d28b89b0bac18602810fc22b49a86001600160a01b031663a9059cbb6105ad5f546001600160a01b031690565b6040516001600160e01b031960e084901b1681526001600160a01b039091166004820152602481018490526044016020604051808303815f875af11580156105f7573d5f803e3d5ffd5b505050506040513d601f19601f8201168201806040525081019061061b91906115b1565b5050565b610627611094565b6005805464ffffffffff909216600160c01b0264ffffffffff60c01b19909216919091179055565b610657611094565b6106605f6110c0565b565b6106606110d9565b60015433906001600160a01b031681146106a25760405163118cdaa760e01b81526001600160a01b0382166004820152602401610555565b6106ab816110c0565b50565b6106b6611094565b600580546001600160601b03909216600160601b026bffffffffffffffffffffffff60601b19909216919091179055565b333b156107365760405162461bcd60e51b815260206004820152601960248201527f4f6e6c7920454f412063616e20706c61636520612062696473000000000000006044820152606401610555565b6001600160601b03811061077e5760405162461bcd60e51b815260206004820152600f60248201526e62696453697a6520746f6f2062696760881b6044820152606401610555565b600254600160a01b900464ffffffffff16428110156107d45760405162461bcd60e51b81526020600482015260126024820152714e6f206163746976652061756374696f6e7360701b6044820152606401610555565b600554600160601b90046001600160601b03166003546001600160a01b03165f9081526004602052604090205461081491906001600160601b03166115e4565b6001600160601b03168210156108a05760405162461bcd60e51b815260206004820152604560248201527f4e657720626964207368616c6c2062652067726561746572206f72206571756160448201527f6c206f6e20426964496e6372656d656e7420746f2063757272656e74206265736064820152641d08189a5960da1b608482015260a401610555565b335f9081526004602090815260408083208151808301909252546001600160601b038116808352600160601b90910464ffffffffff169282019290925291906108ec90600b0b8561160b565b600254600160c81b900464ffffffffff90811660208581019182526001600160601b038881168752335f8181526004909352604083208851815495518716600160601b026001600160881b0319909616931692909217939093179055600380546001600160a01b03191690921790915591925061096c904290861661162a565b600554909150600160c01b900464ffffffffff1664ffffffffff168164ffffffffff1610156109c25761099f8185611643565b6002805464ffffffffff60a01b1916600160a01b64ffffffffff84160217905593505b5f821315610a5657604080516323b872dd60e01b81523360048201523060248201526044810184905290517376e222b07c53d28b89b0bac18602810fc22b49a8916323b872dd91606480830192602092919082900301815f875af1158015610a2c573d5f803e3d5ffd5b505050506040513d601f19601f82011682018060405250810190610a5091906115b1565b50610af0565b5f821215610af0577376e222b07c53d28b89b0bac18602810fc22b49a863a9059cbb33610a8285611661565b6040516001600160e01b031960e085901b1681526001600160a01b03909216600483015260248201526044016020604051808303815f875af1158015610aca573d5f803e3d5ffd5b505050506040513d601f19601f82011682018060405250810190610aee91906115b1565b505b602083015164ffffffffff16336040805188815264ffffffffff881660208201529081018590526001600160a01b0391909116907ffb8c920d611499f9068f09b99aa3a09f6a1f943202390e2dfad122766e20ece39060600160405180910390a35050505050565b610b60611094565b600680546001600160a01b0319166001600160a01b0392909216919091179055565b6002546001600160a01b03163314610bcf5760405162461bcd60e51b815260206004820152601060248201526f556e617574686f72697a65642028452960801b6044820152606401610555565b600254600160a01b900464ffffffffff164211610c395760405162461bcd60e51b815260206004820152602260248201527f41756374696f6e20696e20706c6163652c2063616e6e6f74207374617274206e604482015261657760f01b6064820152608401610555565b610c416110d9565b600280544264ffffffffff908116600160c81b0264ffffffffff60c81b19918616600160a01b029190911669ffffffffffffffffffff60a01b1990921691909117179055610c936001600160a01b0390565b600380546001600160a01b0319166001600160a01b039283161790555f52600460209081527f3569f564c44c2d85a381a1123e4afebef0204e2bb799b725ae533e5c15f0829d80546001600160601b0319166001600160601b038416908117909155604080519182525164ffffffffff85169242927f60dacd4457ba58bb4b72bb599d92b70c415b3f8e91d8cb628562bb89e370f81c929081900390910190a35050565b610d3f611094565b5f5b84811015610e53575f868683818110610d5c57610d5c61167b565b9050602002016020810190610d7191906112e8565b6001600160a01b0316858584818110610d8c57610d8c61167b565b90506020020135848481518110610da557610da561167b565b6020026020010151604051610dba919061168f565b5f6040518083038185875af1925050503d805f8114610df4576040519150601f19603f3d011682016040523d82523d5f602084013e610df9565b606091505b5050905080610e4a5760405162461bcd60e51b815260206004820152601960248201527f556e61626c6520746f2070657266726f6d6120612063616c6c000000000000006044820152606401610555565b50600101610d41565b505050505050565b335f908152600460209081526040918290208251808401909352546001600160601b0381168352600160601b900464ffffffffff90811691830191909152600254600160c81b8104821691600160a01b909104164211158015610ecf57508064ffffffffff16826020015164ffffffffff16145b15610ed8575050565b600354336001600160a01b0390911603610ef0575050565b81516001600160601b03165f03610f05575050565b81515f808452338152600460209081526040909120845181549286015164ffffffffff16600160601b026001600160881b03199093166001600160601b0391821617929092179055167376e222b07c53d28b89b0bac18602810fc22b49a86001600160a01b031663a9059cbb336040516001600160e01b031960e084901b1681526001600160a01b039091166004820152602481018490526044016020604051808303815f875af1158015610fbc573d5f803e3d5ffd5b505050506040513d601f19601f82011682018060405250810190610fe091906115b1565b5060405181815264ffffffffff83169033907f17c1d890f3ffba4991a771a0b55802a1eff3159d0cce950fb68d1360530393d99060200160405180910390a3505050565b61102c611094565b600180546001600160a01b0383166001600160a01b0319909116811790915561105c5f546001600160a01b031690565b6001600160a01b03167f38d16b8cac22d99fc7c124b9cd0de2d3fa1faef420bfe791d8c362d765e2270060405160405180910390a350565b5f546001600160a01b031633146106605760405163118cdaa760e01b8152336004820152602401610555565b600180546001600160a01b03191690556106ab81611299565b600254600160a01b900464ffffffffff1642116110f257565b6003546001600160a01b031661110c6001600160a01b0390565b6001600160a01b0316816001600160a01b03161415801561114c57506001600160a01b0381165f908152600460205260409020546001600160601b031615155b156106ab576001600160a01b0381165f90815260046020526040812054600580546001600160601b039283169384939091611189918591166115e4565b82546001600160601b039182166101009390930a9283029190920219909116179055506001600160a01b0382165f90815260046020526040902080546001600160601b03191690556111e36006546001600160a01b031690565b604051633c3284d160e01b81526001600160a01b0384811660048301529190911690633c3284d1906024015f604051808303815f87803b158015611225575f80fd5b505af1158015611237573d5f803e3d5ffd5b505050506001600160a01b0382165f818152600460205260408082205490516001600160601b0385169392600160601b90920464ffffffffff16917fe0cd90766c15f7b4f6005cfeac58557360ca7dad41abeeb585e961cda38da3c191a45050565b5f80546001600160a01b038381166001600160a01b0319831681178455604051919092169283917f8be0079c531659141344cd1fd0a4f28419497f9722a3daafe3b4186f6b6457e09190a35050565b5f602082840312156112f8575f80fd5b81356001600160a01b038116811461130e575f80fd5b9392505050565b803564ffffffffff81168114611329575f80fd5b919050565b5f6020828403121561133e575f80fd5b61130e82611315565b80356001600160601b0381168114611329575f80fd5b5f6020828403121561136d575f80fd5b61130e82611347565b5f60208284031215611386575f80fd5b5035919050565b5f806040838503121561139e575f80fd5b6113a783611315565b91506113b560208401611347565b90509250929050565b5f8083601f8401126113ce575f80fd5b50813567ffffffffffffffff8111156113e5575f80fd5b6020830191508360208260051b85010111156113ff575f80fd5b9250929050565b634e487b7160e01b5f52604160045260245ffd5b604051601f8201601f1916810167ffffffffffffffff8111828210171561144357611443611406565b604052919050565b5f805f805f6060868803121561145f575f80fd5b67ffffffffffffffff8087351115611475575f80fd5b61148288883589016113be565b9096509450602087013581811115611498575f80fd5b6114a489828a016113be565b9095509350506040870135818111156114bb575f80fd5b8701601f810189136114cb575f80fd5b8035828111156114dd576114dd611406565b6114ec60208260051b0161141a565b8082825260208201915060208360051b85010192508b83111561150d575f80fd5b602084015b8381101561159e578581351115611527575f80fd5b803585018d603f820112611539575f80fd5b60208101358781111561154e5761154e611406565b611561601f8201601f191660200161141a565b8181528f6040838501011115611575575f80fd5b816040840160208301375f60208383010152808652505050602083019250602081019050611512565b5080955050505050509295509295909350565b5f602082840312156115c1575f80fd5b8151801515811461130e575f80fd5b634e487b7160e01b5f52601160045260245ffd5b6001600160601b03818116838216019080821115611604576116046115d0565b5092915050565b8181035f831280158383131683831282161715611604576116046115d0565b8181038181111561163d5761163d6115d0565b92915050565b64ffffffffff818116838216019080821115611604576116046115d0565b5f600160ff1b8201611675576116756115d0565b505f0390565b634e487b7160e01b5f52603260045260245ffd5b5f82515f5b818110156116ae5760208186018101518583015201611694565b505f92019182525091905056fea26469706673582212201ef969edc905c8f8cdfc4ae805d23fd05acf376ff6894ad8a3b3c922d023267664736f6c63430008170033",
    "linkReferences": {}
  },
  "methodIdentifiers": {
    "AuctionEndTime()": "f3c88510",
    "AuctionStartTime()": "31bdf5ca",
    "AuctionTimeExtraWindow()": "0d6e4f08",
    "BestBidWallet()": "bc537b76",
    "BidIncrement()": "b2048e5e",
    "Bids(address)": "0251e03e",
    "ClaimReward()": "79372f9a",
    "Executor()": "4d86003e",
    "IsAlive()": "1fc09c94",
    "LaunchAuction(uint40,uint96)": "c4513b18",
    "MerchNft()": "600d55c1",
    "Multicall(address[],uint256[],bytes[])": "d818cf20",
    "PlaceBid(uint256)": "967e5e95",
    "RedeemRefund()": "e4fb5613",
    "SetAuctionTimeExtraWindow(uint40)": "60869e0e",
    "SetBidIncrement(uint96)": "7ec2dad6",
    "SetExecutor(address)": "34d4f6a5",
    "SetMerchNft(address)": "c028abfb",
    "Withdraw()": "57ea89b6",
    "WithdrawBalance()": "a39d716d",
    "acceptOwnership()": "79ba5097",
    "owner()": "8da5cb5b",
    "pendingOwner()": "e30c3978",
    "renounceOwnership()": "715018a6",
    "transferOwnership(address)": "f2fde38b"
  },
  "id": 32
}