{
  "abi": [
    {
      "inputs": [
        {
          "internalType": "address",
          "name": "owner",
          "type": "address"
        },
        {
          "internalType": "address",
          "name": "executor",
          "type": "address"
        }
      ],
      "stateMutability": "nonpayable",
      "type": "constructor"
    },
    {
      "inputs": [
        {
          "internalType": "address",
          "name": "owner",
          "type": "address"
        }
      ],
      "name": "OwnableInvalidOwner",
      "type": "error"
    },
    {
      "inputs": [
        {
          "internalType": "address",
          "name": "account",
          "type": "address"
        }
      ],
      "name": "OwnableUnauthorizedAccount",
      "type": "error"
    },
    {
      "anonymous": false,
      "inputs": [
        {
          "indexed": true,
          "internalType": "uint256",
          "name": "StartTime",
          "type": "uint256"
        },
        {
          "indexed": true,
          "internalType": "uint256",
          "name": "EndTime",
          "type": "uint256"
        },
        {
          "indexed": false,
          "internalType": "uint256",
          "name": "StartBid",
          "type": "uint256"
        }
      ],
      "name": "AuctionLaunched",
      "type": "event"
    },
    {
      "anonymous": false,
      "inputs": [
        {
          "indexed": true,
          "internalType": "address",
          "name": "Wallet",
          "type": "address"
        },
        {
          "indexed": true,
          "internalType": "uint256",
          "name": "AuctionStartTime",
          "type": "uint256"
        },
        {
          "indexed": false,
          "internalType": "uint256",
          "name": "Size",
          "type": "uint256"
        },
        {
          "indexed": false,
          "internalType": "uint256",
          "name": "AuctionEndTime",
          "type": "uint256"
        },
        {
          "indexed": false,
          "internalType": "int256",
          "name": "Transferred",
          "type": "int256"
        }
      ],
      "name": "BidPlaced",
      "type": "event"
    },
    {
      "anonymous": false,
      "inputs": [
        {
          "indexed": true,
          "internalType": "address",
          "name": "previousOwner",
          "type": "address"
        },
        {
          "indexed": true,
          "internalType": "address",
          "name": "newOwner",
          "type": "address"
        }
      ],
      "name": "OwnershipTransferStarted",
      "type": "event"
    },
    {
      "anonymous": false,
      "inputs": [
        {
          "indexed": true,
          "internalType": "address",
          "name": "previousOwner",
          "type": "address"
        },
        {
          "indexed": true,
          "internalType": "address",
          "name": "newOwner",
          "type": "address"
        }
      ],
      "name": "OwnershipTransferred",
      "type": "event"
    },
    {
      "anonymous": false,
      "inputs": [
        {
          "indexed": true,
          "internalType": "address",
          "name": "Wallet",
          "type": "address"
        },
        {
          "indexed": true,
          "internalType": "uint256",
          "name": "AuctionStartTime",
          "type": "uint256"
        },
        {
          "indexed": false,
          "internalType": "uint256",
          "name": "Size",
          "type": "uint256"
        }
      ],
      "name": "RefundClaimed",
      "type": "event"
    },
    {
      "anonymous": false,
      "inputs": [
        {
          "indexed": true,
          "internalType": "uint256",
          "name": "AuctionStartTime",
          "type": "uint256"
        },
        {
          "indexed": true,
          "internalType": "address",
          "name": "Wallet",
          "type": "address"
        },
        {
          "indexed": true,
          "internalType": "uint256",
          "name": "BidSize",
          "type": "uint256"
        }
      ],
      "name": "RewardIssued",
      "type": "event"
    },
    {
      "inputs": [],
      "name": "AuctionEndTime",
      "outputs": [
        {
          "internalType": "uint40",
          "name": "",
          "type": "uint40"
        }
      ],
      "stateMutability": "view",
      "type": "function"
    },
    {
      "inputs": [],
      "name": "AuctionStartTime",
      "outputs": [
        {
          "internalType": "uint40",
          "name": "",
          "type": "uint40"
        }
      ],
      "stateMutability": "view",
      "type": "function"
    },
    {
      "inputs": [],
      "name": "AuctionTimeExtraWindow",
      "outputs": [
        {
          "internalType": "uint40",
          "name": "",
          "type": "uint40"
        }
      ],
      "stateMutability": "view",
      "type": "function"
    },
    {
      "inputs": [],
      "name": "BestBidWallet",
      "outputs": [
        {
          "internalType": "address",
          "name": "",
          "type": "address"
        }
      ],
      "stateMutability": "view",
      "type": "function"
    },
    {
      "inputs": [],
      "name": "BidIncrement",
      "outputs": [
        {
          "internalType": "uint96",
          "name": "",
          "type": "uint96"
        }
      ],
      "stateMutability": "view",
      "type": "function"
    },
    {
      "inputs": [
        {
          "internalType": "address",
          "name": "",
          "type": "address"
        }
      ],
      "name": "Bids",
      "outputs": [
        {
          "internalType": "uint96",
          "name": "CurrentUserBid",
          "type": "uint96"
        },
        {
          "internalType": "uint40",
          "name": "BidTime",
          "type": "uint40"
        }
      ],
      "stateMutability": "view",
      "type": "function"
    },
    {
      "inputs": [],
      "name": "ClaimReward",
      "outputs": [],
      "stateMutability": "nonpayable",
      "type": "function"
    },
    {
      "inputs": [],
      "name": "Executor",
      "outputs": [
        {
          "internalType": "address",
          "name": "",
          "type": "address"
        }
      ],
      "stateMutability": "view",
      "type": "function"
    },
    {
      "inputs": [],
      "name": "IsAlive",
      "outputs": [
        {
          "internalType": "bool",
          "name": "",
          "type": "bool"
        }
      ],
      "stateMutability": "view",
      "type": "function"
    },
    {
      "inputs": [
        {
          "internalType": "uint40",
          "name": "endTime",
          "type": "uint40"
        },
        {
          "internalType": "uint96",
          "name": "minBid",
          "type": "uint96"
        }
      ],
      "name": "LaunchAuction",
      "outputs": [],
      "stateMutability": "nonpayable",
      "type": "function"
    },
    {
      "inputs": [],
      "name": "MerchNft",
      "outputs": [
        {
          "internalType": "address",
          "name": "",
          "type": "address"
        }
      ],
      "stateMutability": "view",
      "type": "function"
    },
    {
      "inputs": [
        {
          "internalType": "address[]",
          "name": "targets",
          "type": "address[]"
        },
        {
          "internalType": "uint256[]",
          "name": "values",
          "type": "uint256[]"
        },
        {
          "internalType": "bytes[]",
          "name": "calldatas",
          "type": "bytes[]"
        }
      ],
      "name": "Multicall",
      "outputs": [],
      "stateMutability": "payable",
      "type": "function"
    },
    {
      "inputs": [
        {
          "internalType": "uint256",
          "name": "bidSize",
          "type": "uint256"
        }
      ],
      "name": "PlaceBid",
      "outputs": [],
      "stateMutability": "nonpayable",
      "type": "function"
    },
    {
      "inputs": [],
      "name": "RedeemRefund",
      "outputs": [],
      "stateMutability": "nonpayable",
      "type": "function"
    },
    {
      "inputs": [
        {
          "internalType": "uint40",
          "name": "newValue",
          "type": "uint40"
        }
      ],
      "name": "SetAuctionTimeExtraWindow",
      "outputs": [],
      "stateMutability": "nonpayable",
      "type": "function"
    },
    {
      "inputs": [
        {
          "internalType": "uint96",
          "name": "newValue",
          "type": "uint96"
        }
      ],
      "name": "SetBidIncrement",
      "outputs": [],
      "stateMutability": "nonpayable",
      "type": "function"
    },
    {
      "inputs": [
        {
          "internalType": "address",
          "name": "executor",
          "type": "address"
        }
      ],
      "name": "SetExecutor",
      "outputs": [],
      "stateMutability": "nonpayable",
      "type": "function"
    },
    {
      "inputs": [
        {
          "internalType": "address",
          "name": "newValue",
          "type": "address"
        }
      ],
      "name": "SetMerchNft",
      "outputs": [],
      "stateMutability": "nonpayable",
      "type": "function"
    },
    {
      "inputs": [],
      "name": "Withdraw",
      "outputs": [],
      "stateMutability": "nonpayable",
      "type": "function"
    },
    {
      "inputs": [],
      "name": "WithdrawBalance",
      "outputs": [
        {
          "internalType": "uint96",
          "name": "",
          "type": "uint96"
        }
      ],
      "stateMutability": "view",
      "type": "function"
    },
    {
      "inputs": [],
      "name": "acceptOwnership",
      "outputs": [],
      "stateMutability": "nonpayable",
      "type": "function"
    },
    {
      "inputs": [],
      "name": "owner",
      "outputs": [
        {
          "internalType": "address",
          "name": "",
          "type": "address"
        }
      ],
      "stateMutability": "view",
      "type": "function"
    },
    {
      "inputs": [],
      "name": "pendingOwner",
      "outputs": [
        {
          "internalType": "address",
          "name": "",
          "type": "address"
        }
      ],
      "stateMutability": "view",
      "type": "function"
    },
    {
      "inputs": [],
      "name": "renounceOwnership",
      "outputs": [],
      "stateMutability": "nonpayable",
      "type": "function"
    },
    {
      "inputs": [
        {
          "internalType": "address",
          "name": "newOwner",
          "type": "address"
        }
      ],
      "name": "transferOwnership",
      "outputs": [],
      "stateMutability": "nonpayable",
      "type": "function"
    }
  ],
  "bytecode": {
    "object": "0x608060405234801562000010575f80fd5b5060405162001966380380620019668339810160408190526200003391620001db565b8181816001600160a01b0381166200006457604051631e4fbdf760e01b81525f600482015260240160405180910390fd5b6200006f8162000152565b50600280546001600160a01b03199081166001600160a01b0393841617909155604080518082019091525f8082526001602080840191825291859052600490915290517f3569f564c44c2d85a381a1123e4afebef0204e2bb799b725ae533e5c15f0829d8054925164ffffffffff166c01000000000000000000000000026001600160881b03199093166001600160601b0390921691909117919091179055600380549091169091179055505060058054600160601b600160e81b0319167903840000003635c9adc5dea000000000000000000000000000001790555062000211565b600180546001600160a01b03191690556200016d8162000170565b50565b5f80546001600160a01b038381166001600160a01b0319831681178455604051919092169283917f8be0079c531659141344cd1fd0a4f28419497f9722a3daafe3b4186f6b6457e09190a35050565b80516001600160a01b0381168114620001d6575f80fd5b919050565b5f8060408385031215620001ed575f80fd5b620001f883620001bf565b91506200020860208401620001bf565b90509250929050565b611747806200021f5f395ff3fe608060405260043610610161575f3560e01c80637ec2dad6116100cd578063c028abfb11610087578063e30c397811610062578063e30c39781461046e578063e4fb56131461048b578063f2fde38b1461049f578063f3c88510146104be575f80fd5b8063c028abfb1461041d578063c4513b181461043c578063d818cf201461045b575f80fd5b80637ec2dad6146103475780638da5cb5b14610366578063967e5e9514610382578063a39d716d146103a1578063b2048e5e146103d8578063bc537b76146103fe575f80fd5b806357ea89b61161011e57806357ea89b6146102b9578063600d55c1146102cd57806360869e0e146102ec578063715018a61461030b57806379372f9a1461031f57806379ba509714610333575f80fd5b80630251e03e146101655780630d6e4f08146101d35780631fc09c941461020d57806331bdf5ca1461023d57806334d4f6a5146102615780634d86003e14610282575b5f80fd5b348015610170575f80fd5b506101a961017f36600461133e565b60046020525f90815260409020546001600160601b03811690600160601b900464ffffffffff1682565b604080516001600160601b03909316835264ffffffffff9091166020830152015b60405180910390f35b3480156101de575f80fd5b506005546101f790600160c01b900464ffffffffff1681565b60405164ffffffffff90911681526020016101ca565b348015610218575f80fd5b50600254600160a01b900464ffffffffff1642111560405190151581526020016101ca565b348015610248575f80fd5b506002546101f790600160c81b900464ffffffffff1681565b34801561026c575f80fd5b5061028061027b36600461133e565b6104e2565b005b34801561028d575f80fd5b506002546102a1906001600160a01b031681565b6040516001600160a01b0390911681526020016101ca565b3480156102c4575f80fd5b5061028061050c565b3480156102d8575f80fd5b506006546102a1906001600160a01b031681565b3480156102f7575f80fd5b50610280610306366004611384565b61061f565b348015610316575f80fd5b5061028061064f565b34801561032a575f80fd5b50610280610662565b34801561033e575f80fd5b506102806106c4565b348015610352575f80fd5b506102806103613660046113b3565b610708565b348015610371575f80fd5b505f546001600160a01b03166102a1565b34801561038d575f80fd5b5061028061039c3660046113cc565b610741565b3480156103ac575f80fd5b506005546103c0906001600160601b031681565b6040516001600160601b0390911681526020016101ca565b3480156103e3575f80fd5b506005546103c090600160601b90046001600160601b031681565b348015610409575f80fd5b506003546102a1906001600160a01b031681565b348015610428575f80fd5b5061028061043736600461133e565b610bae565b348015610447575f80fd5b506102806104563660046113e3565b610bd8565b6102806104693660046114a1565b610d8d565b348015610479575f80fd5b506001546001600160a01b03166102a1565b348015610496575f80fd5b50610280610eb1565b3480156104aa575f80fd5b506102806104b936600461133e565b61107a565b3480156104c9575f80fd5b506002546101f790600160a01b900464ffffffffff1681565b6104ea6110ea565b600280546001600160a01b0319166001600160a01b0392909216919091179055565b6002546001600160a01b0316331461055e5760405162461bcd60e51b815260206004820152601060248201526f556e617574686f72697a65642028452960801b60448201526064015b60405180910390fd5b600580546001600160601b031981169091556001600160601b03167376e222b07c53d28b89b0bac18602810fc22b49a86001600160a01b031663a9059cbb6105ad5f546001600160a01b031690565b6040516001600160e01b031960e084901b1681526001600160a01b039091166004820152602481018490526044016020604051808303815f875af11580156105f7573d5f803e3d5ffd5b505050506040513d601f19601f8201168201806040525081019061061b9190611607565b5050565b6106276110ea565b6005805464ffffffffff909216600160c01b0264ffffffffff60c01b19909216919091179055565b6106576110ea565b6106605f611116565b565b6003546001600160a01b031633146106bc5760405162461bcd60e51b815260206004820181905260248201527f4f6e6c792077696e6e65722063616e20636c61696d20746865207265776172646044820152606401610555565b61066061112f565b60015433906001600160a01b031681146106fc5760405163118cdaa760e01b81526001600160a01b0382166004820152602401610555565b61070581611116565b50565b6107106110ea565b600580546001600160601b03909216600160601b026bffffffffffffffffffffffff60601b19909216919091179055565b333b156107905760405162461bcd60e51b815260206004820152601960248201527f4f6e6c7920454f412063616e20706c61636520612062696473000000000000006044820152606401610555565b6001600160601b0381106107d85760405162461bcd60e51b815260206004820152600f60248201526e62696453697a6520746f6f2062696760881b6044820152606401610555565b600254600160a01b900464ffffffffff164281101561082e5760405162461bcd60e51b81526020600482015260126024820152714e6f206163746976652061756374696f6e7360701b6044820152606401610555565b600554600160601b90046001600160601b03166003546001600160a01b03165f9081526004602052604090205461086e91906001600160601b031661163a565b6001600160601b03168210156108fa5760405162461bcd60e51b815260206004820152604560248201527f4e657720626964207368616c6c2062652067726561746572206f72206571756160448201527f6c206f6e20426964496e6372656d656e7420746f2063757272656e74206265736064820152641d08189a5960da1b608482015260a401610555565b335f9081526004602090815260408083208151808301909252546001600160601b038116808352600160601b90910464ffffffffff1692820192909252919061094690600b0b85611661565b600254600160c81b900464ffffffffff90811660208581019182526001600160601b038881168752335f818152600490935260409092208751815494518616600160601b026001600160881b031990951692169190911792909217909155600380546001600160a01b0319169091179055600554919250600160c01b9091048116906109d59042908616611680565b1015610a1957600554600160c01b900464ffffffffff166109f69042611699565b6002805464ffffffffff60a01b1916600160a01b64ffffffffff84160217905592505b5f811315610aad57604080516323b872dd60e01b81523360048201523060248201526044810183905290517376e222b07c53d28b89b0bac18602810fc22b49a8916323b872dd91606480830192602092919082900301815f875af1158015610a83573d5f803e3d5ffd5b505050506040513d601f19601f82011682018060405250810190610aa79190611607565b50610b47565b5f811215610b47577376e222b07c53d28b89b0bac18602810fc22b49a863a9059cbb33610ad9846116b7565b6040516001600160e01b031960e085901b1681526001600160a01b03909216600483015260248201526044016020604051808303815f875af1158015610b21573d5f803e3d5ffd5b505050506040513d601f19601f82011682018060405250810190610b459190611607565b505b602082015164ffffffffff16336040805187815264ffffffffff871660208201529081018490526001600160a01b0391909116907ffb8c920d611499f9068f09b99aa3a09f6a1f943202390e2dfad122766e20ece39060600160405180910390a350505050565b610bb66110ea565b600680546001600160a01b0319166001600160a01b0392909216919091179055565b6002546001600160a01b03163314610c255760405162461bcd60e51b815260206004820152601060248201526f556e617574686f72697a65642028452960801b6044820152606401610555565b600254600160a01b900464ffffffffff164211610c8f5760405162461bcd60e51b815260206004820152602260248201527f41756374696f6e20696e20706c6163652c2063616e6e6f74207374617274206e604482015261657760f01b6064820152608401610555565b610c9761112f565b600280544264ffffffffff908116600160c81b0264ffffffffff60c81b19918616600160a01b029190911669ffffffffffffffffffff60a01b1990921691909117179055610ce96001600160a01b0390565b600380546001600160a01b0319166001600160a01b039283161790555f52600460209081527f3569f564c44c2d85a381a1123e4afebef0204e2bb799b725ae533e5c15f0829d80546001600160601b0319166001600160601b038416908117909155604080519182525164ffffffffff85169242927f60dacd4457ba58bb4b72bb599d92b70c415b3f8e91d8cb628562bb89e370f81c929081900390910190a35050565b610d956110ea565b5f5b84811015610ea9575f868683818110610db257610db26116d1565b9050602002016020810190610dc7919061133e565b6001600160a01b0316858584818110610de257610de26116d1565b90506020020135848481518110610dfb57610dfb6116d1565b6020026020010151604051610e1091906116e5565b5f6040518083038185875af1925050503d805f8114610e4a576040519150601f19603f3d011682016040523d82523d5f602084013e610e4f565b606091505b5050905080610ea05760405162461bcd60e51b815260206004820152601960248201527f556e61626c6520746f2070657266726f6d6120612063616c6c000000000000006044820152606401610555565b50600101610d97565b505050505050565b335f908152600460209081526040918290208251808401909352546001600160601b0381168352600160601b900464ffffffffff90811691830191909152600254600160c81b8104821691600160a01b909104164211158015610f2557508064ffffffffff16826020015164ffffffffff16145b15610f2e575050565b600354336001600160a01b0390911603610f46575050565b81516001600160601b03165f03610f5b575050565b81515f808452338152600460209081526040909120845181549286015164ffffffffff16600160601b026001600160881b03199093166001600160601b0391821617929092179055167376e222b07c53d28b89b0bac18602810fc22b49a86001600160a01b031663a9059cbb336040516001600160e01b031960e084901b1681526001600160a01b039091166004820152602481018490526044016020604051808303815f875af1158015611012573d5f803e3d5ffd5b505050506040513d601f19601f820116820180604052508101906110369190611607565b5060405181815264ffffffffff83169033907f17c1d890f3ffba4991a771a0b55802a1eff3159d0cce950fb68d1360530393d99060200160405180910390a3505050565b6110826110ea565b600180546001600160a01b0383166001600160a01b031990911681179091556110b25f546001600160a01b031690565b6001600160a01b03167f38d16b8cac22d99fc7c124b9cd0de2d3fa1faef420bfe791d8c362d765e2270060405160405180910390a350565b5f546001600160a01b031633146106605760405163118cdaa760e01b8152336004820152602401610555565b600180546001600160a01b0319169055610705816112ef565b600254600160a01b900464ffffffffff16421161114857565b6003546001600160a01b03166111626001600160a01b0390565b6001600160a01b0316816001600160a01b0316141580156111a257506001600160a01b0381165f908152600460205260409020546001600160601b031615155b15610705576001600160a01b0381165f90815260046020526040812054600580546001600160601b0392831693849390916111df9185911661163a565b82546001600160601b039182166101009390930a9283029190920219909116179055506001600160a01b0382165f90815260046020526040902080546001600160601b03191690556112396006546001600160a01b031690565b604051633c3284d160e01b81526001600160a01b0384811660048301529190911690633c3284d1906024015f604051808303815f87803b15801561127b575f80fd5b505af115801561128d573d5f803e3d5ffd5b505050506001600160a01b0382165f818152600460205260408082205490516001600160601b0385169392600160601b90920464ffffffffff16917fe0cd90766c15f7b4f6005cfeac58557360ca7dad41abeeb585e961cda38da3c191a45050565b5f80546001600160a01b038381166001600160a01b0319831681178455604051919092169283917f8be0079c531659141344cd1fd0a4f28419497f9722a3daafe3b4186f6b6457e09190a35050565b5f6020828403121561134e575f80fd5b81356001600160a01b0381168114611364575f80fd5b9392505050565b803564ffffffffff8116811461137f575f80fd5b919050565b5f60208284031215611394575f80fd5b6113648261136b565b80356001600160601b038116811461137f575f80fd5b5f602082840312156113c3575f80fd5b6113648261139d565b5f602082840312156113dc575f80fd5b5035919050565b5f80604083850312156113f4575f80fd5b6113fd8361136b565b915061140b6020840161139d565b90509250929050565b5f8083601f840112611424575f80fd5b50813567ffffffffffffffff81111561143b575f80fd5b6020830191508360208260051b8501011115611455575f80fd5b9250929050565b634e487b7160e01b5f52604160045260245ffd5b604051601f8201601f1916810167ffffffffffffffff811182821017156114995761149961145c565b604052919050565b5f805f805f606086880312156114b5575f80fd5b67ffffffffffffffff80873511156114cb575f80fd5b6114d88888358901611414565b90965094506020870135818111156114ee575f80fd5b6114fa89828a01611414565b909550935050604087013581811115611511575f80fd5b8701601f81018913611521575f80fd5b8035828111156115335761153361145c565b61154260208260051b01611470565b8082825260208201915060208360051b85010192508b831115611563575f80fd5b602084015b838110156115f457858135111561157d575f80fd5b803585018d603f82011261158f575f80fd5b6020810135878111156115a4576115a461145c565b6115b7601f8201601f1916602001611470565b8181528f60408385010111156115cb575f80fd5b816040840160208301375f60208383010152808652505050602083019250602081019050611568565b5080955050505050509295509295909350565b5f60208284031215611617575f80fd5b81518015158114611364575f80fd5b634e487b7160e01b5f52601160045260245ffd5b6001600160601b0381811683821601908082111561165a5761165a611626565b5092915050565b8181035f83128015838313168383128216171561165a5761165a611626565b8181038181111561169357611693611626565b92915050565b64ffffffffff81811683821601908082111561165a5761165a611626565b5f600160ff1b82016116cb576116cb611626565b505f0390565b634e487b7160e01b5f52603260045260245ffd5b5f82515f5b8181101561170457602081860181015185830152016116ea565b505f92019182525091905056fea2646970667358221220cd5011452c07295a06b1122434d30db34ef273f719e7fef7c11660751a18e49564736f6c63430008170033",
    "linkReferences": {}
  },
  "methodIdentifiers": {
    "AuctionEndTime()": "f3c88510",
    "AuctionStartTime()": "31bdf5ca",
    "AuctionTimeExtraWindow()": "0d6e4f08",
    "BestBidWallet()": "bc537b76",
    "BidIncrement()": "b2048e5e",
    "Bids(address)": "0251e03e",
    "ClaimReward()": "79372f9a",
    "Executor()": "4d86003e",
    "IsAlive()": "1fc09c94",
    "LaunchAuction(uint40,uint96)": "c4513b18",
    "MerchNft()": "600d55c1",
    "Multicall(address[],uint256[],bytes[])": "d818cf20",
    "PlaceBid(uint256)": "967e5e95",
    "RedeemRefund()": "e4fb5613",
    "SetAuctionTimeExtraWindow(uint40)": "60869e0e",
    "SetBidIncrement(uint96)": "7ec2dad6",
    "SetExecutor(address)": "34d4f6a5",
    "SetMerchNft(address)": "c028abfb",
    "Withdraw()": "57ea89b6",
    "WithdrawBalance()": "a39d716d",
    "acceptOwnership()": "79ba5097",
    "owner()": "8da5cb5b",
    "pendingOwner()": "e30c3978",
    "renounceOwnership()": "715018a6",
    "transferOwnership(address)": "f2fde38b"
  },
  "id": 35
}